S01F00006C76676C5F6578744275734C43445F656B5F7261366D342E737265636B
S31500000000D8600120C1CF030029CE0300BDCF030075
S31500000010BDCF0300BDCF0300BDCF0300BDCF03009E
S3150000002000000000000000000000000051C20300B4
S31500000030BDCF03000000000069C20300D1C2030067
S3150000004045CB030069C7030069C703000000000031
S31500000050000000000000000000000000000000009A
S31500000060000000000000000000000000000000008A
S31500000070000000000000000000000000000000007A
S31500000080000000000000000000000000000000006A
S31500000090000000000000000000000000000000005A
S315000000A0000000000000000000000000000000004A
S315000000B0000000000000000000000000000000003A
S315000000C0000000000000000000000000000000002A
S315000000D0000000000000000000000000000000001A
S315000000E0000000000000000000000000000000000A
S315000000F000000000000000000000000000000000FA
S3150000010000000000000000000000000000000000E9
S3150000011000000000000000000000000000000000D9
S3150000012000000000000000000000000000000000C9
S3150000013000000000000000000000000000000000B9
S3150000014000000000000000000000000000000000A9
S315000001500000000000000000000000000000000099
S315000001600000000000000000000000000000000089
S315000001700000000000000000000000000000000079
S315000001800000000000000000000000000000000069
S315000001900000000000000000000000000000000059
S315000001A00000000000000000000000000000000049
S315000001B00000000000000000000000000000000039
S315000001C00348044B834202D0034B03B118477047E0
S315000001D0580000205800002000000000064B074988
S315000001E0C91A891048BF0131491003D0044B0BB11D
S315000001F001481847704700BF5800002058000020EB
S315000002000000000010B5064C237843B9FFF7D8FF6D
S31500000210044B13B10448AFF300800123237010BDD3
S315000002208000002000000000B04C040008B5054B1B
S315000002301BB105490548AFF30080BDE80840FFF74C
S31500000240CDBF00BF0000000084000020B04C0400B9
S3150000025070B508460C463AF031FA064635F076FC9B
S315000002600546304635F078FC29460246204635F0EC
S315000002704DFB0121204619F0FFFC204634F048F8DA
S31500000280054620463AF06AF832F0D8FF0F4E00EBEA
S31500000290D07042103146284635F038FB28460021FA
S315000002A019F0EAFC0223002128461A4619F0F0FC50
S315000002B0204634F02DF80446012119F001FD31469F
S315000002C02046BDE8704035F0EDBA00BF640000205E
S315000002D010B50C460C4A2046114635F017FB002394
S315000002E00E222046094935F091F82046802134F047
S315000002F01DF82046032137F0B1F82046BDE810402E
S31500000300032137F0B9B800BF6400002011030000D4
S315000003102DE9F04383B0054615F05CFA04462846FD
S3150000032015F054FA0E2C02D003B0BDE8F083074650
S3150000033019F00AFD10B1037A012BF5D0384635F0D5
S3150000034011FC0546384635F011FC06466946384626
S3150000035037F0DCF9009B05EBD57203EB6208019BD5
S3150000036006EBD67203EB620998FBF5F899FBF6F9F2
S31500000370002406FB09F905FB08F838463AF0E8F9C7
S31500000380A04219D9214638463AF09CF9054635F07F
S315000003903FFB0646284635F069FBB04504F10104EB
S315000003A0EBD18145E9D17D6300222321384695F8BA
S315000003B0344034F0B9FF00E00F242146384637F0C8
S315000003C03DF803B0BDE8F08310B50C46044A20465C
S315000003D0114635F09BFA2046BDE8104036F072BF54
S315000003E064000020704700BF30B5672299B04FF413
S315000003F0C021054639F076F9009058B928461949C2
S3150000040013F0A4FF95F86C3043F0010385F86C30C7
S3150000041019B030BD0446684613F016FF29466846F3
S3150000042014F082F868460F4914F080F821466846B1
S3150000043014F07EF82146684614F08EF800226846CD
S31500000440012114F07BF86846074914F07DF84FF057
S31500000450FF31684614F084F8684613F00FFF19B0B0
S3150000046030BD00BFD9070000CD4401002DE9F0439F
S31500000470C7B0054615F0AAF90446284635F016F821
S315000004800646606B07F0E0F894F86C30DB0702D4A0
S3150000049047B0BDE8F083054621A832F047F84FF48F
S315000004A0C021204621AA259634F0EAF9226E636B14
S315000004B0E06DD3E9077302EB070C626E1844134430
S315000004C00793A36D21A93B44CDE9043004AA304625
S315000004D0CDF818C032F0B2F830224FF4C0212046D1
S315000004E039F000F9074612224FF4C021204608973A
S315000004F039F0F8F803464FF4C0211022204603EBEA
S315000005000708089339F0EEF84FF000090890A26E3C
S31500000510214B15441B680744CDE9029928469847A4
S315000005202946024602A812F0FFF8049B58224344CB
S315000005300493059B49463B44606B059339F0D2F81A
S31500000540034608A80893ADF80430C3F307438DF8B3
S31500000550063031F097FA4FF4C021204608AA0C96CF
S3150000056034F006FC9DF8A430022B05D801991198A9
S3150000057014F0E2FD00288BD19DF87430304643F02C
S31500000580010304AA08A902AC0F948DF8743031F067
S31500000590C3FA47B0BDE8F083E00F0400C86B10B59E
S315000005A00C4618B112F020FD0023E363206C18B14D
S315000005B012F01AFD00232364A06B18B112F014FD8B
S315000005C00023A36310BD00BF2DE9F04F5A228BB064
S315000005D00021044639F086F805465C2200212046B3
S315000005E0069539F07FF80690002C00F0CE8006467E
S315000005F0606BD4F8548007F027F8664B41461B68B9
S3150000060083469847644B0BEB00021B68002181462A
S3150000061010460293039298470746284619F048FD6C
S315000006200D2F824600F2B28042F20143FB4013F0E6
S31500000630010F0CBF394620210022284619F000FD83
S31500000640414604AA8046606B07F002F8636B1846C1
S31500000650019306F0F9FF019B02460021184639F086
S3150000066075FB616B049BCA6913444A6A434493420F
S3150000067027DD94F8781011F0080122D1032820D044
S31500000680059B56443344049101910593002F7FD076
S31500000690424B03981B68984781440199029B0BEBD8
S315000006A0090098470D28014606D842F20143C34087
S315000006B013F0010F18BF20212846002219F0C0FCB4
S315000006C0804630224FF4C0212046C4F8689039F0A5
S315000006D009F8074610224FF4C0212046069739F044
S315000006E001F8034611224FF4C021204603EB070B05
S315000006F0069338F0F7FF054612224FF4C021204634
S31500000700069538F0EFFF064613224FF4C021204627
S31500000710069638F0E7FF0346616B049806933D445E
S315000007203E441F44861BA36D0744C869059A0344CB
S3150000073006930B6AA2EB0B0B1544E26D55441A4463
S315000007400792226E47441044626E08901344204676
S3150000075006A9013D013F099335F0F4FBC4E918757C
S31500000760C4E9166B636B2046DA6906A91644069639
S3150000077017441A6A08970BEB020315440793099569
S3150000078035F0E0FB0BB0BDE8F08FFEE7394653E7E6
S31500000790202191E7D00F0400D80F0400E00F0400D9
S315000007A070B5054615F016F80446284615F00EF8FD
S315000007B0313C064639F082FF012C00D970BD054652
S315000007C00021304606F01AFE2846FFF7FDFE2846B1
S315000007D0BDE87040FFF708BE90F86CC00CF001024F
S315000007E08A421DD00A1E18BF0122F0B5D0E918644E
S315000007F062F3000CC56DD0F834E0876D85B080F8E3
S315000008006CC0DEE9073C69461F44654433446444D2
S31500000810009702930195039435F094FB05B0F0BD63
S31500000820704700BF002859D0F0B5436D04468B428F
S315000008300D4683B050D0384B406B1E6806F004FF5F
S31500000840B047002DB8BF2D18A842064604DB47F670
S31500000850FF739D4218BF2E462046666536F032FD70
S315000008605A220021204638F03DFF054631466A46A9
S31500000870606B009506F0ECFE284619F019FC06465A
S315000008802046019D36F024FE854228DB204635F0C1
S315000008906DF9019B07462046F51836F019FE2B1A0E
S315000008A0BB4230DC2046009D36F018FE854224DB34
S315000008B0204635F057F9009B07462046F51836F0D6
S315000008C00DFE2B1ABB4210DC009B20462365FFF76A
S315000008D08BFD2046FFF778FE03B0F0BDFEE7012250
S315000008E02046019937F096F8D0E7009B0122DB1BE2
S315000008F02046991937F078F8E6E701222046009954
S3150000090037F072F8D4E7019B0122DB1B20469919C8
S3150000091037F080F8C6E700BFC80F0400012270B5A3
S3150000092040F2DC50002591F86C304A6591F8782049
S3150000093023F0030343F0030322F00E0281F86C3028
S3150000094081F87820C1E91250C1E91055C1E90D5569
S31500000950CD630D6508460C4606F044FD0646642048
S31500000960666314F0ADFA01463046134E34F09AFF32
S31500000970606B124906F042FD31462B463222606B0F
S3150000098034F044FD2B4631223146606B34F03EFD97
S3150000099020464FF4806133F0C9FC20464FF40061D5
S315000009A033F014FD20462946FFF73CFF2046BDE8FC
S315000009B07040FFF719BD00BFA1070000B8FC030097
S315000009C030B5054685B0416D02AA406B06F040FE83
S315000009D05C220021284638F085FE04465A22002172
S315000009E02846019438F07EFE019019F061FB039BC6
S315000009F0044401341C442B6D686BCDE9023435F098
S31500000A00ABF8844201DB05B030BD012202A9686B58
S31500000A1006F0F6FE014628462C6DFFF703FF2C650F
S31500000A2005B030BD30B5044685B0416D02AA406BB5
S31500000A3006F00EFE5C220021204638F053FE0546E5
S31500000A405A2200212046019538F04CFE019019F0FB
S31500000A502FFB039B0544013D206D5B1BCDE9020383
S31500000A60012202A9606B06F0CBFE01462046256DE9
S31500000A70FFF7D8FE256505B030BD00BF30B190F850
S31500000A806C3061F3410380F86C307047FEE700BFBD
S31500000A9040B370B590F878300446C3F3C0028A427A
S31500000AA00D4631D061F3C30380F878306420D1B1AC
S31500000AB014F006FA05466FF04041606B34F0F2FE22
S31500000AC02946606B002239F099FA6FF040412046C2
S31500000AD034F002FF00232046BDE870401A4619464E
S31500000AE036F0AEBFFEE714F0EBF90146606B34F06A
S31500000AF0D9FE2A462946606B39F080FA2A46022139
S31500000B00204638F0E9FEE5E770BD00BF28B190F851
S31500000B1078305B0702D5C06B7047FEE7406B06F086
S31500000B2093BD00BF08B1406D7047FEE730B110B508
S31500000B30046C88B01CB1204608B010BDFEE7214603
S31500000B405A2238F0CFFD234642F22202694600902F
S31500000B5019F06CFA034C044B002808BF1C462046CB
S31500000B6008B010BD9CF0030098F003002DE9F84F83
S31500000B708146406B06F068FD194B1B68984708B91B
S31500000B80BDE8F88F07464846FFF7D0FF824611F0CA
S31500000B9053FE00FB07FB06460BF1010012F008FAB4
S31500000BA0002580460446204632465146013511F05E
S31500000BB0BBFDAF423444F6D1002308F80B30414662
S31500000BC0D9F8340006F01AFC404612F00DFA4846F1
S31500000BD0044913F0BBFB4846BDE8F84FFFF7F4BCE9
S31500000BE0C80F0400E5030000006890F878305B0742
S31500000BF000D47047FFF7BABF10B5C36C044698B06F
S31500000C002BB990F878305B0722D418B010BD68462F
S31500000C1013F01AFB2146684613F086FC68460F4916
S31500000C2013F084FC6846E16C13F082FC01226846EE
S31500000C30002113F083FC6846094913F085FC6846D9
S31500000C40084913F085FC684613F018FB18B010BD70
S31500000C5018B0BDE81040FFF789BF00BFE5030000EC
S31500000C60CD440100E90B000020B190F87800C0F3F4
S31500000C70C0007047FEE700BFA8B138B50446406B18
S31500000C8006F0C6FE4FF6FF73984205460CD0606B21
S31500000C904FF6FF7106F0CCFC606B4FF6FF71BDE8B6
S31500000CA0384006F0CBBCFEE7606B06F0B5FEA84206
S31500000CB0EDD138BDF0B590F8783005465A070C46A8
S31500000CC083B047D46B6CB3B1002294F90030019223
S31500000CD07BB1304A304B17681E6801A92046B847D9
S31500000CE0B0470146284600F083F8019BE356002BE7
S31500000CF0F3D103B0F0BDAB6C002BE5D121462846FD
S31500000D0000F054F80128F4D1D5E90D032BB106F013
S31500000D109BFC90F9003003B3686B2246696D06F0C0
S31500000D2087FE2846FFF7A8FF95F878305B0718D4AA
S31500000D301A4B20461B686C6D98470146284621448D
S31500000D40FFF770FD00222321284603B0BDE8F040DE
S31500000D5034F0EABAFFF70AFFB4E7284635F0F6F8AA
S31500000D60DAE7E86B11F068FD0646204611F064FDEF
S31500000D7001463144E86B013112F040F9E86338B1BD
S31500000D802246696D16F094FC2846FFF735FFCFE73B
S31500000D90FEE700BFD80F0400DC0F0400C80F0400F4
S31500000DA010B111B1FFF786BFFEE7FEE770B50C463E
S31500000DB000230E4E242122460546336034F0B4FA51
S31500000DC0306830B190F900305BB1214611F076FD04
S31500000DD008B9012070BD35B1316829B12846FFF741
S31500000DE069FF002070BDFEE7FEE700BF9C00002003
S31500000DF0B8B1F0B590F87820044610070B4685B0D8
S31500000E0003D50A290BD00D2909D00025204602A9B1
S31500000E10029300930395FFF7C9FF012802D005B09E
S31500000E20F0BDFEE7364B29461E686846B047A36C00
S31500000E3005468BB9606CE0B190F90030CBB1002368
S31500000E40019305E001A9B047854212D0606C019B71
S31500000E50C356002BF6D1E2E72A4B1B681F4694F8CF
S31500000E607830590748D5E06BB847A36C9842E1D370
S31500000E70D5E794F878305A0736D4D4E90D032BB168
S31500000E8006F0E2FB90F9003093B3606B616D02AA45
S31500000E9006F0CEFD2046FFF7EFFE94F878305B07AC
S31500000EA015D5E06B11F0C8FC054602A811F0C4FC8C
S31500000EB001462944E06B013112F0A0F8E06390B1DD
S31500000EC0616D02AA16F0F4FB2046FFF795FE616DF0
S31500000ED020460131FFF7A6FC00222321204634F0EC
S31500000EE023FA05B0F0BDFEE72046FFF73FFEC4E754
S31500000EF0204635F02BF8C8E7606B06F0A5FBB3E794
S31500000F00D80F0400C80F040030B130B5436D044655
S31500000F1083B013B903B030BDFEE77F2301A9ADF856
S31500000F200430FFF743FF01280546F3D1606B06F056
S31500000F308BFB2A460546616D013916F0E9FB294609
S31500000F40606B06F05BFA2046FFF796FEA36B2BB1AB
S31500000F50606B06F079FB90F9003003B394F87830B3
S31500000F60616D5B0710D501390122E06B16F0D0FBED
S31500000F70E56B284611F060FC01462846013112F067
S31500000F803DF858B1616DE06320460139FFF74AFC30
S31500000F9000222321204634F0C7F9BBE7FEE72046AE
S31500000FA034F0D4FFDAE700BF2DE9F043B848A3B028
S31500000FB00D4634F09FF9012802D023B0BDE8F08336
S31500000FC0284614F007FC0446284614F0FFFB631E6F
S31500000FD004461F2BF1D801A252F823F05D10000041
S31500000FE05D1000005D100000BB0F0000BB0F00008D
S31500000FF0BB0F0000BB0F0000BB0F0000BB0F0000C3
S31500001000BB0F00005D100000BB0F0000BB0F00000F
S31500001010BB0F0000BB0F0000BB0F00005512000005
S31500001020BB0F00004B120000BB0F0000BB0F0000FF
S31500001030BB0F0000BB0F0000BB0F0000BB0F000082
S31500001040BB0F0000BB0F0000BB0F000071110000BA
S31500001050BB0F0000BB0F00006511000018F074FE06
S3150000106004460028A9D0284614F0B0FB90F86C304E
S3150000107006469F07A1D5204618F06CFE02289CD094
S31500001080204618F067FE042897D0706B09A934F043
S31500001090B3FC204601A918F069FE204603A918F002
S315000010A093FE019B002B88DB029A002A85DB0999B7
S315000010B028465B1A0A990593521A069214F08AFB7F
S315000010C00446706B34F042FD059B0122002B756BC4
S315000010D0C0F23281984200F3518147F6FF7796F8C5
S315000010E07830980703F0010140F11F81002940F094
S315000010F03381002A40F01C81012C7FF45EAF43F05F
S31500001100010386F878304FF6FF734FF4407130468E
S315000011103767736733F05AF939463046FFF782FB73
S3150000112096F87830DA077FF548AFD6E91C218A426F
S31500001130EB6C40F203818B4202D12B6D9A4205D0B3
S31500001140E964336F30462B6534F000FF24F0080461
S31500001150032C7FF432AF96F8783023F0010386F83B
S3150000116078302AE7284623B0BDE8F043FFF77EB97A
S31500001170284614F02BFB0446284634F097F905461A
S31500001180606B06F061FA90F90030002B7FF415AF22
S31500001190A36B002B3FF411AF93F90030002B3FF403
S315000011A00CAF09A830F06EFC4FF40021204609AAC6
S315000011B00D9533F0DDFD94F878301B0705D59DF8C5
S315000011C0773043F008038DF877301222002120464D
S315000011D038F088FA8146132200212046CDF8149073
S315000011E038F080FA8046102200212046CDF814807F
S315000011F038F078FA0646112200212046059638F086
S3150000120071FA0746302200212046059738F06AFA1F
S31500001210034605931E442846984409EB03051F44DC
S31500001220236A09A93344666A05AAA6EB0808A66AD2
S31500001230F71BE669CDF81C803544CDE905530897C0
S31500001240A36B109330F068FCB7E623B0BDE8F0431B
S31500001250FFF7CAB8284614F0C1FA0168142919D84C
S3150000126001290ED98B1E122B0BD8DFE803F052266C
S315000012700A0A0A0A1F0A440A0A0A0A0A0A3C342EF9
S315000012805500204623B0BDE8F043FFF7B1BD00BFCF
S31500001290600004007F29F4D174B1656D2046691C95
S315000012A0FFF7C0FA636D9D423FF487AE204623B038
S315000012B0BDE8F043FFF728BEFEE747F6FF7120467C
S315000012C023B0BDE8F043FFF7ADBA1CB1616D20460F
S315000012D00131F5E7FEE72CB1204623B0BDE8F04327
S315000012E0FFF76EBBFEE72CB1204623B0BDE8F04306
S315000012F0FFF798BBFEE75CB194F878301B07C0D5C2
S3150000130000222621204623B0BDE8F04334F00CB875
S31500001310FEE700212046D3E734B1616D00293FF492
S315000013204CAE20460139CBE7FEE700297FF4F4AE48
S31500001330012C7FF442AEEFE60027D0E62BD2934293
S3150000134003D12B6D99423FF401AFEA64736F3046C7
S315000013502B6534F0FBFDF9E6022C2CD024F00803B3
S31500001360032B7FF4D9AE4FF44071304632F0DEFFE6
S3150000137096F87830D9077FF520AECDE605A9284640
S3150000138006F03EFA05A90746706B06F03FFA80F0B4
S315000013900102D2B2A3E64FF6FF72934203D12A6D41
S315000013A09A423FF4D3AE4FF6FF733046C5E9133386
S315000013B034F0CCFDCAE67767AEE600BF00284DD014
S315000013C0F0B50D4683B0002947D00446FFF754FC1C
S315000013D0636C002B4CD02F49606B06F00FF847F674
S315000013E0FF712046FFF71EFA94F87830590737D474
S315000013F0002295F9003001927BB1274A274B1768E6
S315000014001E6801A92846B847B04701462046FFF79F
S31500001410EFFC019BEB56002BF3D1A36B2BB1606B5A
S3150000142006F012F990F90030F3B194F878305A07C3
S315000014300BD5E06B11F0D8FD284611F055FAE063A4
S3150000144068B194F878305B071FD400222321204628
S3150000145003B0BDE8F04033F067BFFEE7FEE7FEE706
S315000014600022E36B1A70C3E7204634F06FFDDCE719
S31500001470A36C002BAFD12946606B05F0BFFF47F682
S31500001480FF712046FFF7CEF9C7E72046FFF76EFB50
S31500001490DBE700BFB8FC0300D80F0400DC0F040034
S315000014A018B1416D0131FFF7BDB9FEE710B1416DCD
S315000014B009B97047FEE70139FFF7B4B92DE9F043E2
S315000014C00D4683B0012145639046044639F0FAF88B
S315000014D000210746204639F0F5F800210646204649
S315000014E039F0F0F8304939F039F985424FD2002FFA
S315000014F04DD0204635F0E6FE94F8381011F00C0178
S315000015001ED015220021384638F0ECF881463846C0
S31500001510CDF8049034F026FB03462722204600210E
S315000015201C4638F0DFF8C3B2012B019032D009EB2C
S3150000153004014246384605FB01F136F055FA0FE044
S315000015401422384638F0CEF804463846019434F072
S315000015500DFB21184246384605FB01F136F05AFAD2
S3150000156000213046104A39F0BFF880B100240E4FF2
S315000015702A1BB2FA82F201215209013432F07EFFAF
S315000015803A462146304639F0AFF80028F0D103B08C
S31500001590BDE8F083A14469424246384609FB01F1A1
S315000015A036F022FADCE700BF280A040070B584B0E2
S315000015B0044614F00BF90546204614F00BF90446D0
S315000015C0284639F07BF8332C064603D00E2C0AD079
S315000015D004B070BD30B10022416B04B0BDE870406C
S315000015E0FFF76CBFFEE718F0AFFB10B1037A012BD3
S315000015F0EED0284602A936F089F896F83830284603
S3150000160013F00C0F27D034F0ADFA27220446002140
S31500001610304638F067F8C3B2012B029B04EBD47254
S315000016200CBFC3EB620303EB620393FBF4F401907C
S31500001630756B24EAE47418F087FBB0B101222146E9
S315000016403046FFF73BFFAC42C2D000222321304692
S3150000165033F06AFEBCE734F089FA039B00EBD072E4
S3150000166003EB620494FBF0F4E2E7024621463046BF
S31500001670FFF724FFE7E700BF10B50C480C4633F030
S3150000168039FE012800D010BD204614F0A3F8034609
S3150000169020461C4614F09AF8312CF4D128B1BDE846
S315000016A010400022416BFFF709BFFEE784000400EB
S315000016B060B14B1E2DE9F04104460D46072B06D8B6
S315000016C0DFE803F05E99059D05050521FEE700218B
S315000016D038F0F8FF01210646204638F0F3FF94F86B
S315000016E0383005F00C0813F00C0F14BF012200224D
S315000016F0B8F1000318BF01239A4240F0848084F8B1
S315000017003850BDE8F081092118F0B6FA00212046CC
S3150000171038F0D8FF01210646204638F0D3FF0746A9
S315000017203E4934F0BFF80121384618F0C9FA0021C5
S31500001730304618F0A1FA0021384618F09DFA032128
S31500001740384635F08BFE0021384635F095FE94F884
S31500001750383013F00C0FD2D1204638F0FFFD31F0AF
S315000017606DFD0746642013F0ABFB07EBD777014608
S315000017707A10304634F0CAF884F83850BDE8F08163
S31500001780002118F079FA0021204638F09BFF01214C
S315000017900646204638F096FF0746204934F09CF866
S315000017A00121384618F08CFA0121304618F064FA07
S315000017B00121384618F060FA0021384635F04EFE11
S315000017C00321384635F058FE94F8383013F00C0FE4
S315000017D095D0204638F0C2FD31F030FD0746642032
S315000017E013F06EFB39460246304634F08FF884F823
S315000017F03850BDE8F081082118F03EFAC3E7012110
S3150000180018F03AFA82E7204638F0A8FD31F016FDC6
S315000018100746B8F1000FE2D0A4E700BF640000203D
S31500001820F8B50D460026184A2846114685F8386050
S3150000183034F06CF8284632F06BFD284632F068FD2D
S315000018400446124F314618F017FA3946334633220A
S31500001850204633F0DBFD33460E223946204633F070
S31500001860D5FD3146204635F0D1FD28460421FFF747
S315000018701FFF2046802132F059FD2046BDE8F84082
S315000018804FF4806132F0A2BD64000020AD15000067
S315000018902DE9F04F07468B4689B0104691460493D2
S315000018A018F006FC7A6B159B0BFB02FB00EB03089A
S315000018B0169B984402EB0B039B4540D2DDE913319E
S315000018C05E464FF0000A0B440593FC6BB30054F8D8
S315000018D026E0BEF1000F2BD0786C02F1FF3CD44518
S315000018E050F82A1000EB8A004FD9043BE218002575
S315000018F054460AE01B78DB070BD550F8043F013449
S315000019006445194405F1010503D252F8043F002B42
S31500001910F0D19EF8003013F0020314D0484618F0B8
S31500001920C7FB159B169AC3181344434523DC7A6BF1
S31500001930013602EB0B03B3420AF1010AC5D8404651
S3150000194009B0BDE8F08F0293059B4A46C91A129B5F
S31500001950019100930EF10801049B06A815F038FECC
S31500001960159A079BA2461344169A2E44134498458B
S31500001970B8BF9846DBE7484618F09AFB159B7A6B8A
S3150000198000EB0308169B9844D2E754460025C0E7AF
S315000019904FF0000C2DE9F0431D4604460E4617464F
S315000019A083B0C3F800C04AB163466046626C52F821
S315000019B020200130134487422B60F7D1616B01F17F
S315000019C0FF3E774528BF4FF000081AD206FB01F10B
S315000019D0E36B3A46C3EB870C4FF0000803EB810339
S315000019E0ACEB810C08E00978C9070AD5606C724532
S315000019F06044C158884404D253F8041B01320029BC
S31500001A00F1D127220021204637F06CFE0190C0B2AA
S31500001A100128204639D035F04FFD2B6812221B1ABB
S31500001A202B600021204637F05DFE2A6801900244B3
S31500001A302A60636C53F8273043441344013BAB6080
S31500001A4000231A466B603EB1216C51F82210013218
S31500001A500B4496426B60F7D100211022204637F0E6
S31500001A6041FE03466A6820461A446A60019335F0CF
S31500001A7029FD6B68181A6860236C53F826301844E1
S31500001A800138E86003B0BDE8F08335F015FD2B683A
S31500001A9003442B60204634F059F82B681322A0EB40
S31500001AA003090021204637F01DFEA9EB0003AB60B9
S31500001AB0626C019052F8272042449B1A2B60BFE7C4
S31500001AC030B585B0D0E912216B460446FFF760FFBA
S31500001AD00099002919DB2046029D34F037F885422B
S31500001AE027DC019A002A07DB2046039D34F034F8F0
S31500001AF0854211DC05B030BD01230021204652424B
S31500001B0005B0BDE8304035F009BF0123002220466C
S31500001B10494235F003FFE4E7204634F01DF802465B
S31500001B20012300212046521B05B0BDE8304035F0A8
S31500001B30F5BE204634F00AF80123411B0022204658
S31500001B4035F0ECFECDE700BF2DE9F04FADF52B7D6E
S31500001B50044613F03BFE0746204633F0A7FC044636
S31500001B6004F1180308901A4607F11C011EA81D4629
S31500001B70109312F079FD18B90DF52B7DBDE8F08FA5
S31500001B8022AE95E80F0086E80F001EAB0FCB85E866
S31500001B900F0030220021384637F0A4FD814610227E
S31500001BA000213846CDF8149237F09CFD05461122E7
S31500001BB000210D903846859537F094FD0346122294
S31500001BC000210E903846859337F08CFD03460021A0
S31500001BD013220A903846859337F084FD0246859293
S31500001BE03A6B4E4B3E8E134043F400233B630B90FF
S31500001BF060A8139630F09AFC4FF4A02160AA3846EC
S31500001C00649432F03DFE2EA82FF03CFF4FF4A02145
S31500001C102EAA3846329433F0ABF897F832303E8627
S31500001C2023F0080387F832303B6A38462B445C1EA3
S31500001C3035F048FC4FF00008231A4B4438461993F8
S31500001C40CDF85880CDF8608035F036FC2722054661
S31500001C504146384637F046FD8590BC6BC6B2002C2F
S31500001C6000F0BC811195C3463546CDF81880CDF8F5
S31500001C7048903B6C069A199953F8222001318B182B
S31500001C8003F1FF3C219B17919942CDF864C000F304
S31500001C90A581012D00F0F9810A99FB690B44119980
S31500001CA0013B5B1A12990B441893786B002800F0DD
S31500001CB08F8102EBD27253100F9303464FF0000947
S31500001CC0F96B60469C4651F82B304E4605954FEA17
S31500001CD08B0A002B00F01E811B787A6C0793059BFC
S31500001CE002EB860E012B00F01D81189B0CF1FF38CC
S31500001CF00133169352F82620B045134403F1FF33FF
S31500001D00189340F21E81AAF104023446002381464C
S31500001D10059DA8EB060811440AE000BF0000F7FF86
S31500001D20189A013302444345189204F1010411D074
S31500001D3051F8042F72B11278D2070BD5012D5EF837
S31500001D40040FEDD1169A0133121A4345169204F187
S31500001D500104EDD1484605950BF1010B9B441F9BF1
S31500001D60834200F3CB80DDE917C19DF8ED21DDF854
S31500001D7058E055071D90CDF868E01C91CDF86CC071
S31500001D8002F01F030AD5FA690A9D2A44724505DA4C
S31500001D907A9A02EBD272AEEB62021A929A070AD5CF
S31500001DA03A6A0D9D2A44624505DA7A9A02EBD272A6
S31500001DB0ACEB62021B921D070ED57A6A0B9D521B75
S31500001DC0013A8A4208DD7A9A02EBD27C02F00102DD
S31500001DD002EB6C020A441C92D9070ED5BB6A0E9A16
S31500001DE09B1A013B834208DD7A9B03EBD37203F017
S31500001DF0010303EB620303441D93FB6C069A9342B3
S31500001E0003D1BB6CB34200F0F2800DF50579942244
S31500001E1060A948460DF58E7810F086FC642240468F
S31500001E202EA910F081FC069B494608981AAACDE90E
S31500001E308736C8E9023630F001FCFB6B53F80A30EE
S31500001E40002B59D012224FF4A021384637F04AFC15
S31500001E50034613222A934FF4A0213846099337F0FC
S31500001E6041FC054610224FF4A0212A95384637F04A
S31500001E7039FC814611224FF4A0213846CDF8A890AE
S31500001E8037F030FC099B1699189A1944179B521B78
S31500001E90199D4B44CDE927322B1A2993079B2AAE6D
S31500001EA013F002031D46269130604DD098F853304A
S31500001EB026A843F0080388F85330FB6B369A53F88C
S31500001EC00A30D8F8285003F10809D8F82C300992BE
S31500001ED0079312F0C7FF0121099ACDE90101079B7B
S31500001EE0494614A8009515F073FB304616AA1EA99C
S31500001EF012F0BAFB002854D1D7F834C0661CB4459A
S31500001F0064D9F96B199851F82B304FEA8B0A002BDC
S31500001F107FF4E2AE0793059B7A6C012B02EB860EEB
S31500001F207FF4E3AE169B0CF1FF38013B189352F891
S31500001F302620B045A3EB020303F1010316933FF6F7
S31500001F40E2AE3446002307E7FB6B369A53F80A30B5
S31500001F50D8F8281003F10809D8F82C3026A80C92D6
S31500001F600993079112F07EFF0799CDE90105099BB8
S31500001F700C9A009114A8494615F02AFB159B0F9957
S31500001F80179A03EBD3735B105B420A44D118D21A3B
S31500001F9027912992304616AA1EA912F065FB002841
S31500001FA0AAD096E80F00109D85E80F00FB6B41460E
S31500001FB053F80A300898083326AAC8F81C302FF0C0
S31500001FC0ABFD1EAB0FCB85E80F0095E7059DBC6BFF
S31500001FD0069B01339C4206933FF64BAE109C22AB08
S31500001FE00FCB84E80F000DF52B7DBDE8F08F3A8E00
S31500001FF002F06001A1F12003B3FA83F302F00800B6
S315000020005B0902F0040C92074FEA431333D543F001
S315000020100203BCF1000F01D043F0040308B143F002
S3150000202008033B8697F832300DF5057943F008032F
S3150000203087F83230484630F079FA0DF58E78089DEB
S31500002040404689952FF01EFD4FF4A0214A4638469A
S31500002050C8F8105032F014FC42464FF4A02138461E
S3150000206032F086FE139B3B8697F8323023F0080346
S3150000207087F83230D7E6BCF1000FCDD10028CED19B
S3150000208020297FF4C2AE0B46CBE70B997B6A5B1A1D
S315000020901199013B5B1A12995B1A169305E600BF6C
S315000020A0F8B50D46496BD5E90EC20CFB01F3DBB161
S315000020B00024274652F82400A60080B143683BB1AD
S315000020C0184610F091FFEB6B9B595F60EB6B9859CC
S315000020D010F08AFFEB6B9F51EA6BD5E90D1C0CFBE8
S315000020E001F30134A342E5D812B1104610F07CFF8B
S315000020F0286C08B110F078FF686C18B1BDE8F8409C
S3150000210010F072BFF8BD00BF012310B50C46C1E93F
S315000021100D33042010F04CFFA36B6064980010F0A0
S3150000212047FF8223626C20641360226C1360D4E93B
S315000021300D3103FB01F1E06B890010F05FFF4FF6F4
S31500002140FF730022E0630260C4E9123310BD00BFD2
S315000021502DE9F04F12228DB04FF4A021044637F03E
S31500002160C1FA054613224FF4A02120460B9537F0FD
S31500002170B9FA064610224FF4A02120460B9637F0F6
S31500002180B1FA074611224FF4A02120460B9737F0EB
S31500002190A9FA03465B224FF4A021079020460B9331
S315000021A037F0A0FA03465C224FF4A021089020469F
S315000021B00B9337F097FA03465A224FF4A021099061
S315000021C020460B9337F08EFA824606224FF4A02162
S315000021D02046CDF82CA037F085FA834607224FF427
S315000021E0A0212046CDF82CB037F07CFAA36B0B90DB
S315000021F0EBB181464FF000080799089BCDE90371C2
S3150000220009995246009120464146CDE90156FFF70D
S315000022103FFB4845A8BF48465845B8BF5846236CBB
S3150000222043F82800A36B08F101089845E4D320463B
S3150000223033F0CEFC20460DB0BDE8F04F33F086BE3D
S31500002240F0B5C74885B00C4633F054F8012801D0E4
S3150000225005B0F0BD204613F0BDFA0546204613F042
S31500002260B5FA6B1E0546332BF2D801A252F823F0BD
S31500002270592300005923000051220000512200007A
S31500002280512200005122000051220000512200007C
S3150000229051220000512200002F240000512200008C
S315000022A0512200005122000051220000512200005C
S315000022B06D240000512200004D2300005122000031
S315000022C0512200005122000051220000512200003C
S315000022D0512200005122000051220000512200002C
S315000022E0FF2400005122000051220000512200006C
S315000022F0512200005122000051220000512200000C
S3150000230051220000512200005122000051220000FB
S3150000231051220000512200005122000051220000EB
S3150000232051220000512200005122000051220000DB
S3150000233051220000AD24000051220000B724000005
S3150000234000232846C5E91233FFF7BAFB284605B035
S31500002350BDE8F04033F0FABD17F0F6FC17F0FAFCD2
S3150000236000F0FD0001287FF473AF17F0EDFC02A921
S3150000237017F0FCFC2846029E35F09EF82722002125
S315000023800644284637F0AEF9C3B2012B019000F09F
S31500002390F080EB69122200212846F61A37F0A2F9DE
S315000023A00190361A6C6B7CB1696C0A689642C0F271
S315000023B00481002305E051F8040F0244B24200F301
S315000023C0D5800133A342F6D100262846039F35F077
S315000023D079F82B6A0744102200212846FF1A37F0A5
S315000023E081F9D5F838E00190A7EB000CBEF1000F9B
S315000023F03FF42EAF296C0A689445C0F2D9800023B9
S31500002400013373453FF424AF51F8040F0244944559
S31500002410F6DA002E3FF41CAFAA6CA24203D1EA6C96
S3150000242093423FF415AF2846C5E912438FE733F0D0
S315000024308DFD17F089FC17F0BDFC4FF6FF73AA6CF3
S315000024409A4205D0EA6C9A4202D0002800F0A58094
S3150000245017F07AFC17F07EFC00F0FD0001287FF4EF
S31500002460F7AE4FF6FF73C5E91233F1E6204613F0D7
S31500002470B5F94FF6FF73AA6C01689A42EC6C3FF40B
S315000024805FAF9C423FF45CAF6F6BAE6B1139BA42E3
S31500002490B4BF10460020B442B4BF2346002303292C
S315000024A03FF6D6AEDFE801F05856315A05B0BDE822
S315000024B0F040FFF74DBE204613F090F96C6B002CF0
S315000024C068D000226B6C03EB8404043C043B53F895
S315000024D0041FA3420A44FAD1511EAA6B002A56D001
S315000024E02B6C03EB82050022043B043D53F8044F9A
S315000024F09D422244FAD1013AC0E90012A8E62046DC
S3150000250005B0BDE8F040FFF71FBB0130874229DC6C
S31500002510711E9942C6BF0027013307F1FF379E425D
S31500002520D4BF06F1FF3323EAE373BA4202D19C42D9
S315000025303FF48EAE2846C5E9127333F007FD2846F0
S31500002540FFF7BEFA00222321284605B0BDE8F04079
S3150000255032F0EABE0133D9E7013BD7E70138D5E7C8
S31500002560A800040000280EDB0746D8E71C46012613
S315000025702BE71322002128466C6A37F0B3F8241A99
S315000025800190A61B0EE78BB1013F013BC7E74FF059
S31500002590FF32B1E74FF0FF319FE70246232128467D
S315000025A032F0C2FE01287FF453AE51E71F46B6E76C
S315000025B0002E3FF44DAE00232EE70024012604E74B
S315000025C04FF0FF330068436333F0C0BC416333F020
S315000025D0BDBC00BF0846002111F0B8BE2DE9F04190
S315000025E0D2B0054613F0F2F80446284632F05EFFF4
S315000025F005466946204633F0BDFA08A82FF096FF37
S315000026004FF40031204608AA0C9532F039F96A4693
S31500002610284608A930F012F8D4E90812E069A36A3E
S3150000262004F11C07CDE904013846CDE9062312F072
S3150000263019FC0646384612F01BFC94F8383003F0B5
S315000026400703012B03D0022B68D0864266DB2046A7
S3150000265033F082FA0646384612F004FC636B871B99
S315000026605A1C00F08B8007FB03F3002BB8BFFF3327
S315000026704FEA232827220021204637F033F8C3B239
S31500002680012B08BFA7EB0808012E2D903046B8BFD6
S315000026900120049B013843441844049306901222F7
S315000026A04FF44031204637F01DF8804613224FF490
S315000026B040312046CDF8B48037F014F80746102292
S315000026C04FF4403120462D9737F00CF806464FF46C
S315000026D04031112220462D9637F004F8049A2D90A9
S315000026E0A2EB08020492069A3A440692059A921BB5
S315000026F00592079A02442DA807922FF017FF20464D
S315000027002DAA4FF44031319532F0BAF8284604AA82
S315000027102DA92FF093FF52B0BDE8F081204633F08B
S3150000272015FA0646384612F0A3FB676BA0EB0608BF
S315000027307B1C1AD008FB07F7002FB8BFFF373F12E4
S3150000274027220021204636F0CDFF2D90C0B2012869
S3150000275008BFA8EB0707012EB8BF0126079B013E5D
S31500002760DB1B07939B1B059399E7204631F0AEFED2
S3150000277010F0010F14BF47460027E1E7204631F06D
S31500002780A5FE10F0010F14BFB8464FF0000871E720
S3150000279010B50C464FF0FF3294F83830204623F03F
S315000027A00703626384F83830102131F00FFE2046AB
S315000027B0082131F0BBFD2046BDE810404FF4806192
S315000027C031F0B4BD2DE9F041584898B00C4632F0CE
S315000027D091FD012802D018B0BDE8F081204612F024
S315000027E0F9FF0546204612F0F1FF1B2D064609D0DB
S315000027F0232D4BD01D2DEED1204618B0BDE8F0415B
S31500002800FFF7ECBE12224FF4403136F06BFF05465F
S3150000281013224FF440313046009536F063FF804670
S3150000282010224FF440313046CDF8008036F05AFF82
S31500002830074611224FF440313046009736F052FFDA
S315000028404545B8BF4546BD420346B8BF3D464FF471
S3150000285040319D423046B8BF1D46009332F0AEFC73
S31500002860034602352046EC1812F0B8FF05462B68E1
S315000028704FF400319C42B8BF1C4630462C6032F003
S315000028809DFC844211DD28682860A4E760B16722B8
S31500002890002136F027FF0446009060B9304618B094
S315000028A0BDE8F04133F052BBFEE74FF4003130464D
S315000028B032F084FCE8E7304631F008FE756B00F034
S315000028C001036A1C29D04FEA0328A5EB032383EAF8
S315000028D0E377A7EBE3770021304611F037FD684632
S315000028E011F0B2FC3146684611F01EFE68461049EA
S315000028F011F01CFE42462946684611F01FFE684646
S315000029000C4911F025FE07FB04F16846090A11F08F
S315000029100FFE684611F0B2FCC0E74FF4807713B1A2
S315000029200025B846D7E798463D46D4E7CC000400D4
S31500002930CD250000C12500000AF0E4BF0BF01CB84D
S3150000294070B504460E4615469AB0002111F0FEFCFD
S3150000295002A811F079FC214602A811F0E5FD02A8B3
S315000029601E4911F0E3FD02A84FF0FF3111F0F8FD0A
S31500002970314602A811F0DCFD05F5B472294602A81D
S3150000298011F0DCFD02A811F079FC02A8144911F03F
S31500002990DBFD4FF480600023009040F2512202A834
S315000029A04FF4D77111F0EAFD4FF4B47202A800217A
S315000029B011F0C4FD0B4902A811F0B8FD02A811F0F0
S315000029C05DFC4FF4B472204600210BF05DFC4FF421
S315000029D0877120460BF064FC1AB070BD3D290000DB
S315000029E0DD4401003929000010B50C4602212046BD
S315000029F031F0ECFC2046BDE81040C8224FF47A7155
S31500002A00FFF79EBF2DE9F0430025D0F884208BB058
S31500002A10AA420446CDE90555CDE90755C36FADF881
S31500002A2024507ADB012505AE002B0DF104083F4A40
S31500002A30B8BF5B420E2140460FF04EFD40460FF0F8
S31500002A40FBFE94F88CC00CF00F09B9EB000213D012
S31500002A50002809DB431C434408EB090113F9010D67
S31500002A60434501F80109F9D1002A05DD3021404628
S31500002A703CF0A8FA94F88CC0BCF10F0F32D84F4640
S31500002A80B9F1000F0ED04146002304E001339F4206
S31500002A9006F8012B03DD11F9012B002AF6D1BCF152
S31500002AA00F0F23D805A92046FEF788FCD4F88830F6
S31500002AB094F88C10092B01F00F0109DD1C481A4609
S31500002AC0A0FB0363632A01F1FF314FEAD303F6DC6F
S31500002AD08F4238BF01312046491BFDF7A3FE0BB0DC
S31500002AE0BDE8F0835FEA1C17CDD13B462E21324666
S31500002AF04B4502F8011BD5DA09F10109A9EB0309D7
S31500002B00013B4E44984403E002F8013BB242C9D06F
S31500002B1018F9013F002BF7D1C4E7AB42B4BF2D2211
S31500002B202B220DF115068DF814207DE7DCF003004D
S31500002B30CDCCCCCC38B500200C4601250F4B104A25
S31500002B40C4E91F03B4F88C3029466FF30A0343F433
S31500002B50806343F005032046C4F88420A4F88C3033
S31500002B60C4F88850FDF794FF20462946FDF786FFF6
S31500002B702046BDE83840FFF745BF00BF9F860100ED
S31500002B806179FEFF60B1C26FD0F88830002AD0F8B4
S31500002B908010134405DB99420BDB934206D1704744
S31500002BA0FEE7002BF7DD5342994202DBC367FFF7CE
S31500002BB029BF90F88D30DB0705D58A4205D00B4634
S31500002BC0C367FFF71FBF0B46E7E7D0F88430E4E79B
S31500002BD078B1C26FD0F88830002AD0F88410A2EB02
S31500002BE0030301DD002B05DB994206DC93420BD182
S31500002BF07047FEE75342994206DD90F88D30DB07B9
S31500002C0005D58A4205D00B46C367FFF7FBBE0B46C8
S31500002C10ECE7D0F88030E9E7F8B58C480D4632F09D
S31500002C2069FB012800D0F8BD0446284612F0D2FD03
S31500002C300646284612F0CAFD0B2E074613D0112E63
S31500002C40F1D117F081F817F085F80446284612F0FE
S31500002C50C5FD0168A1F11103032B00F2F180DFE845
S31500002C6003F05F5A7B6417F06FF817F073F80428C7
S31500002C7029D03846FDF74AFF04460FF0DDFD7A6D90
S31500002C80A3562E2B73D0904200F08880D7F884008C
S31500002C90002A72D10028C0F2898097F88C1001F0C2
S31500002CA00F0101390123002231B1013203EB830305
S31500002CB08A424FEA4303F8D1C7F888303846BDE860
S31500002CC0F840FFF79FBE384631F004FC30F0B4FD03
S31500002CD00028CED097F88C2002F00F02012AA2D944
S31500002CE097F88D30D7F8885003F00603042B65D18A
S31500002CF0012D40F38880564AEB1782FB0552C3EB41
S31500002D00A203012BB8BF0123C7F888303846BDE8B7
S31500002D10F840FFF777BE3846BDE8F840FFF758BFE2
S31500002D203846BDE8F840FFF72DBF042CF3D097B125
S31500002D30D7E92013002BB8BF5B428B42B8BF0B46C6
S31500002D40D7F8882002EB82025000B3EB420FA8BFEF
S31500002D50C7F88800B2E7FEE7042CE1D037B1D7F810
S31500002D6088203B49D31781FB0212C8E7FEE73846A5
S31500002D70FEF79CFB7A6DD7F8840097F88C30B2EB9F
S31500002D80131F03D90F2B88BF02F1FF3203F00F0187
S31500002D900139891A0028B8BF013183E73846511E28
S31500002DA0FDF740FD7A6DD7F88400E6E73846012145
S31500002DB0FDF738FD7A6DD7F88400DEE70A2000219A
S31500002DC0013A13F01DFAEB1785428B4114DAD7E965
S31500002DD02003002BB8BF5B428342B8BF0346D7F837
S31500002DE0882002EB8202B3EB420F4FEA4201FFF664
S31500002DF065AFC7F8881061E7C7F888403846BDE870
S31500002E00F840FFF7FFBD023A0A20002113F0F8F957
S31500002E10D7E92042002AB8BF52420346A242B8BFB1
S31500002E20224603EB8301B2EB410F4FEA4101A8BFF3
S31500002E300B46C7F888303846BDE8F840FFF7E2BDD4
S31500002E403846BDE8F840FDF7D3BF00BF14010400C3
S31500002E506766666608B540F2047010F0A9F8034B81
S31500002E60C3F8E80100B108BDFEE700BFBC000120C1
S31500002E702DE9F0430C46054683B05110002B4ED089
S31500002E8023685B1A1A44013A2360A260036A6360EE
S31500002E90836AE36012224FF44031284636F022FC62
S31500002EA0804613224FF440312846CDF8048036F090
S31500002EB019FC814610224FF440312846CDF8049083
S31500002EC036F010FC064611224FF440312846019692
S31500002ED036F008FC07466A224FF44031284601972F
S31500002EE036F000FC034628461D466B224FF440315F
S31500002EF0019336F0F7FB2368A844A3EB080323608D
S31500002F00A3684D442B446268A360E36806443844D2
S31500002F100344921B6260E36003B0BDE8F08363681C
S31500002F205B1A1A44013A6360E260C3692360436A2C
S31500002F30A360AFE738B50C46002594F8A8304FF4E7
S31500002F40807123F0030384F8A8302046C4F8A45007
S31500002F5031F03CFA1021204631F038FA4FF4806106
S31500002F60204631F0E3F9284630F068F91D2805DCE3
S31500002F702046BDE83840012133F054BA284630F0E7
S31500002F805DF9064B0A3083FB0023C117C1EBE30151
S31500002F902046BDE8384033F045BA00BF676666662E
S31500002FA02DE9F04F87B00F46044616F0CDFE0646D3
S31500002FB016F0D0FE012802D007B0BDE8F08F054616
S31500002FC0304616F0F7FE80460028F5D1304602A9B5
S31500002FD016F0CCFE0322204602A932F09DFE94F89C
S31500002FE0783013F0380300F0C780082B00F0AE806D
S31500002FF0002F40F09580D4F8A450002D00F0ED800D
S3150000300004F140052722D4E90E3600212046F61A9F
S3150000301036F068FB94F87830049013F038095FFABC
S3150000302080F800F0C380B9F1080F94F854A07DD061
S315000030304FF00008002F48D110223946204636F0BE
S3150000304051FB8346112239462046CDF810B036F0A2
S3150000305049FB81462046CDF8109032F07DFDD045E3
S31500003060A0EB0902A2EB0B0200F01081236A039881
S315000030709B44A0EB0B0002EBD2735B1006FB003304
S3150000308093FBF2F3A16B0B44D4F8A420E06BAA42A5
S315000030900CBF606B216C8342A8BF03468B42B8BF4E
S315000030A00B461068984287D01360002F48D04FF423
S315000030B00071204631F08AF9204632F047FF00229F
S315000030C02321204632F030F976E7122200212046ED
S315000030D036F008FB8146132200212046CDF81090D9
S315000030E036F000FB83462046CDF810B032F02EFDB8
S315000030F0D045A0EB0902A2EB0B0200F0C180636A87
S315000031000299A3EB0B035B1AA16B002ABCD002EB5E
S31500003110D270401006FB030393FBF2F30B44B3E7B4
S3150000312094F8A830D9073BD5474664E7A8F10108CB
S31500003130B8FA88F84FEA5818002F3FF47DAFC4E775
S315000031404FF48071204631F041F9B5E7002F00F0C9
S31500003150A58094F8A830D8073FF54DAF0127029B0C
S31500003160D4F89C209B1A002B96F82420B8BF5B420B
S315000031709342BFF640AF1FE7204632F0E7FC054614
S31500003180204632F0E9FC8542B4BF00230123002F1C
S3150000319000F0828094F8A820D2077DD48542DDDA3B
S315000031A0039BD4F8A02000279B1ADCE7204632F0C8
S315000031B0CDFC8346204632F0CFFCB8F1010F94F8DF
S315000031C054A07FF435AF8345B4BF4FF000084FF0ED
S315000031D00108002F3FF430AF77E720460AF04AF99E
S315000031E094F8A830022843F0010384F8A83057D198
S315000031F016F0AAFD04A916F0B9FD0322204604A97B
S3150000320032F08AFD29462722204636F06BFA94F8DA
S315000032107830019013F03806C5B269D0082E94F8BC
S31500003220542049D0059D002A71D0D4F89810A9429F
S3150000323036DBD4F88020AA4239DCD4F89030D4F8B2
S315000032408800801AC91A00EBD07001EBD17102EB2D
S31500003250600203EB6103521B5B1B002AB8BF52429C
S31500003260002BB8BF5B429A4294F8A8305CDD04F1AB
S31500003270340223F00203C4F8A42084F8A830BFE681
S31500003280E3699944029BA3EB09033DE7A36A09EBB3
S315000032900300039BC01AEEE61F46ACE62F46AAE6DD
S315000032A004F13403C4F8A43004F14005AAE604F19D
S315000032B04005C4F8A450A5E66B1E58425841824208
S315000032C0049D3AD0D4F88C30AB42E9DCD4F88410B3
S315000032D0A942ECDBD4F89400E26F891AC01A01EB1C
S315000032E0D17100EBD07002EB610203EB6003B2E731
S315000032F0204632F02BFC8046204632F02DFC012D74
S3150000330094F8542025D080458CDB3046D7E7D4F896
S315000033109030AB42C4DCD4F88800A842C7DBD4F8AE
S315000033209810D4F880208CE704F1400543F002039E
S31500003330C4F8A45084F8A83064E6D4F89400A842EF
S31500003340AEDBE26FAA42B2DCD4F88C30D4F884103B
S31500003350C3E78045FFF666AF2846B0E72DE9F04F94
S31500003360C248D1B00E4631F0C5FF012802D051B097
S31500003370BDE8F08F304612F02DFA0546304612F0C1
S3150000338025FA07460AF076F80128044605D0A4F186
S315000033900204B4FA84F4640964006B1E302BE6D888
S315000033A001A252F823F000BF3F3600005D36000050
S315000033B06D3400006F3300006F3300006F33000080
S315000033C06F3300006F3300006F3300006F3300006F
S315000033D06D3400006F3300006F3300006F33000060
S315000033E06F3300006F330000D13400003135000028
S315000033F0B73700006F3300006F33000071360000EE
S315000034006F3300006F3300006F3300006F3300002E
S31500003410E93600006F330000573500006F330000B7
S315000034206F3300006F3300006F3300006F3300000E
S315000034306F3300006F3300006F3300006F330000FE
S315000034406F3300006F3300006F3300006F330000EE
S315000034506F3300006F3300006F3300006F330000DE
S315000034606F3300006F3300000D3600000025002189
S315000034703846FFF795FD97F8A830384623F0010344
S3150000348087F8A830C7F8A45032F060FD384631F00E
S3150000349021F8064630F0D0F9044616F055FC16F031
S315000034A059FC042800F0EF8101287FF460AF97F8FB
S315000034B0783013F0380300F03C82082B00F043828A
S315000034C04FF48071384651B0BDE8F04F30F02EBF52
S315000034D0304631F0F3FF113803283FF648AFDFE8F6
S315000034E000F01802180297F8A83038469A0700F13B
S315000034F0178209F0A7FF014601223846013909F073
S31500003500FDFE00222321384651B0BDE8F04F31F0D0
S315000035100BBF97F8A8303846990700F1628109F089
S3150000352091FF012201463846114409F0E7FEE8E71B
S31500003530304631F0CFFF97F8A83004469B0738464F
S3150000354000F14F8109F07EFF0146012238462144F1
S3150000355009F0D4FED5E7304612F038F90446304675
S3150000356031F0A4FF272207460021204636F0BAF89C
S315000035702B9094F87830C5B213F0380600F0A98184
S31500003580082E94F8548000F08D81204609F07AFFC9
S315000035900546204632F0DAFA81461DB1636B002BF0
S315000035A0C0F21981B8F1000F00F01981236D4FF0B8
S315000035B0000A564602AD6B6006A82EF0B7FF4FF420
S315000035C04031204606AA0A9731F05AF953464A4630
S315000035D029462046FFF74CFC6B682046C4F890301D
S315000035E0AB6804F18C0BC4F89430EB68C4F89830DF
S315000035F02B68C4F88C3009F03DFF022800F01481D6
S315000036005A46384606A92FF019F8B0E697F87830EA
S3150000361013F0380300F0F380082B00F0FA804FF423
S315000036208071384630F082FE4FF40071384630F033
S31500003630CDFE384651B0BDE8F04F31F02BBE07F154
S315000036409C0416F081FB214616F090FB03222146CE
S31500003650384651B0BDE8F04F32F05EBB0121384626
S3150000366051B0BDE8F04FFFF79BBC00BF3801040026
S31500003670304612F0B3F8BD68804605B1AD6AD7F89A
S315000036809830D7F88C10D7E92402CDE92B10CDE974
S315000036902D2329462A462BA810F0C6FF0022D8F86B
S315000036A000102BA811F0BEF8064688F80400002882
S315000036B07FF45DAE022C7FF45AAED7E92002D7F82C
S315000036C08830F96FCDE92D23CDE92B102A462946FE
S315000036D02BA810F0A9FF3246D8F800102BA811F03D
S315000036E0A1F888F8040042E612224FF44031384629
S315000036F035F0F8FF054613224FF4403138462B9536
S3150000370035F0F0FF824610224FF440313846CDF8AE
S31500003710ACA035F0E7FF814611224FF44031384620
S31500003720CDF8AC9035F0DEFF80466A224FF440318A
S315000037303846CDF8AC8035F0D5FF83466B224FF482
S3150000374040313846CDF8ACB035F0CCFF04463846AB
S315000037502B9432F0FBF900EB4B033846019332F021
S31500003760FBF9019B00EB440083424FEA4B0B3846C2
S315000037704FEA44043EDA32F0E9F983444FEA6B0437
S315000037805545B8BF55464D45B8BF4D464FF4403137
S31500003790384631F013FD4545ACBF64194444034631
S315000037A0023430461C4412F019F803689C42B8BF34
S315000037B01C460460DBE516F0C7FA16F0CBFA0428BF
S315000037C002D002287FF4D3AD97F8A83023F0020385
S315000037D087F8A830CBE5B8F1000F3FF4E7AEA36C4D
S315000037E0E5E609F037FE012201463846114409F0A4
S315000037F0EBFD86E632F0B0F904446410C0E73846C3
S3150000380032F0A4F90446384632F0A6F98442FFF6AF
S3150000381006AF38464FF4007130F088FD4FF48071E2
S31500003820384630F0D3FD04E7942206A92BA80EF003
S315000038307BFF5A46384606A92EF000FFBAF1000F64
S3150000384068D0B0450CBF636CE36C2B6053464A46A8
S3150000385029462046FFF70CFB6B682BA9C4F880307D
S31500003860AB689422C4F88430EB6806A8C4F88830A4
S315000038702B68E3670EF058FF384606A904F17C0270
S315000038802EF0DCFE73E5002C3FF471AD384609F0EE
S31500003890F1FD02285AD02946304651B0BDE8F04F16
S315000038A02FF0A6BF012D2FD0204609F0EBFD0026F4
S315000038B00546204632F050F9814615B1636B002B60
S315000038C01BDBB0451BD0636C02AD4FF0010A2B60C9
S315000038D072E6204632F03AF98246204632F03CF94A
S315000038E0012D814694F854800BD0204609F0CAFD7C
S315000038F0CA450546FFF64DAEDBE7B045E3D0E36CBF
S31500003900E2E78245FFF641AE204609F0BBFD0126FF
S315000039100546CEE7B0450CBF236DA36C6B6095E7FB
S3150000392009F098FD014601223846013909F04CFD9F
S31500003930E7E5384632F00AF90446384632F00CF923
S315000039408442FFF6BDAD4FF40071BBE597F8A83091
S31500003950980704D443F0020387F8A83007E565F317
S3150000396041032946304687F8A83096E72DE9F04FFF
S31500003970B0F850C0C26C85B0CCF30E0B836C0292CB
S31500003980BBF1000F42D082460026DFF89C800BF187
S31500003990FF3900F134050393DAF8503018EA0307CB
S315000039A008D0C3F3CE33B6FBF3F703FB1767B7FABA
S315000039B087F77F09029C00214A46039B0094304604
S315000039C012F03CFC0446284612F0AAF90146D0B192
S315000039D0CB68A34211DC0B69A3420EDBD1E90532A9
S315000039E0FF2B16D0FF2A01D0B34206D091F834300F
S315000039F08E6167F3410381F83430284612F098F956
S31500003A0001460028E4D10136B345C5D105B0BDE86D
S31500003A10F08F91F83430FF2A67F300034E6181F886
S31500003A203430EAD1E2E700BF0080FF3FF0B5074639
S31500003A300C461E4683B0002A3CD0154648216A46ED
S31500003A40284612F0B3FF01281AD1009820636A466F
S31500003A504C21284612F0AAFF01281FD1009BA385FE
S31500003A601B0C84F82E306A4628464D2112F09EFF24
S31500003A7001280CD19DF8000084F83C0003B0F0BD8D
S31500003A8048223146384635F02DFE0190DEE74D22BC
S31500003A903146384635F026FEC0B2EDE74C223146B7
S31500003AA0384635F01FFE0190A085C0F3074084F824
S31500003AB02E00D8E719464C2235F014FE0346C3F310
S31500003AC007453146A3854D22384684F82E5001938A
S31500003AD035F008FE034648223146384684F83C3025
S31500003AE0019335F0FFFD206303B0F0BD2DE9F04FE3
S31500003AF00E4683B0002117461222044635F0F2FD29
S31500003B000546132200212046019535F0EBFD81463E
S31500003B10102200212046CDF8049035F0E3FD8046C2
S31500003B20112200212046CDF8048035F0DBFD8246C7
S31500003B302046CDF804A032F009F8A0EB050B20468C
S31500003B4032F00AF8A0EB0803ABEB090BA3EB0A0370
S31500003B509B45204613DA31F0F9FF431BA3EB09031B
S31500003B6003EBD3735B10E2691A442A443260226A7B
S31500003B701A44424472603B6003B0BDE8F08F31F0F6
S31500003B80EBFFA0EB0803A3EB0A0303EBD3735B1075
S31500003B90E9E700BF2DE9F04F04461646A1B010A88C
S31500003BA089461F462EF034FC10AA0021204631F02B
S31500003BB001FA0322002E00F009814FF4003120465D
S31500003BC035F090FD80460D224FF400312046CDF8A9
S31500003BD0308035F087FD002582460C9094F84430FD
S31500003BE0102B67D8DFE803F069696966696666665F
S31500003BF0096666666666666609000CA9204631F0A7
S31500003C00B9FF0CA811F02EF983460CA811F030F973
S31500003C1000EBD07043100BEBDB7BB3EB6B0F0CA808
S31500003C2000F3E58011F024F900EBD0704210A36D8B
S31500003C30B4F8501003FB09F3C1F30E0103EB830341
S31500003C4001395B00B3FBF1F3D4F85CE094F844C0AF
S31500003C500EEB8E0E03EB4E040C991C9B0D98114433
S31500003C601044D21A0A9111445144002E18BF4546F9
S31500003C70786039604FF480730B9038460027BCF1AA
S31500003C80080F0AAE0CBF551BAD1821461A46009602
S31500003C90019711F0D5F84FF480730A9A2A981544C3
S31500003CA00B9A5544019700962146C0E900521A46E0
S31500003CB011F0C6F821B0BDE8F08F30220021204671
S31500003CC035F010FD8246102200212046CDF830A0A6
S31500003CD035F008FD0346112200210C93204653447B
S31500003CE0029335F0FFFC0346132200210C93204675
S31500003CF05344039335F0F6FC0346122200210C933D
S31500003D0020465344059335F0EDFC834613224FF4C9
S31500003D10A0212046CDF830B035F0E4FC034612224F
S31500003D204FF4A021089020460C9335F0DBFC0346A7
S31500003D3010224FF4A021069020460C9335F0D2FCB9
S31500003D40034611224FF4A021049020460C9335F02F
S31500003D50C9FC94F84410024602290C905AD00BEB89
S31500003D600A0307931C9B042903EBD373D4F81CC0E6
S31500003D704FEA630A41D001297AD0A36A9A44039B89
S31500003D80AAEB030ADDE90603034403EB0C0B002947
S31500003D9078D1B4F85030C3F30E03013B002E65D042
S31500003DA0C8F1000504294BD0994574D0B9F1000F2C
S31500003DB040F08D80C7E900BA2A9B2A9AC3F800B062
S31500003DC07B682B44536021B0BDE8F08F4FF4A021EF
S31500003DD0204635F087FC05460D224FF4A0212046EB
S31500003DE00C9535F07FFCB04682460C90F6E611F055
S31500003DF039F800EBD070421019E7079BE2440AEB52
S31500003E00030B236A02980993049B00EB030A099BA0
S31500003E109A44BEE71C9B616A03EBD37301EB630113
S31500003E20059B0498A1EB030B0299236A01EB000A98
S31500003E309A4406B14546B4F85030C3F30E03013B2D
S31500003E40994508D00398A16A00EB020AA1EB0A0A79
S31500003E50B9F1000F26D10BF1FF33C7E9003A5D1B1C
S31500003E602A9BC3E9005A21B0BDE8F08F6D4299E75D
S31500003E70236A029A53441A449246059B089A1344AD
S31500003E8003EB0C0BB4F85030002E18BF4546C3F3B5
S31500003E900E03013B88E7DDE906231344626AA2EBC1
S31500003EA0030B87E72046CDE9053231F055FEDDE903
S31500003EB002131944049B069A19440A44821A09FB00
S31500003EC002F2059B92FBF3F3AAEB030AC3E7204633
S31500003ED0029331F03BFE079B059A1A44089B1A444D
S31500003EE0069B1A44801A09FB00F0029B90FBF3F331
S31500003EF09B445FE72DE9F04FB0F85030A9B0C3F30B
S31500003F000E04012C029440F2E58090F844300546F8
S31500003F10102B00F0DF80082B00F0DC804FF0000A49
S31500003F2008A82EF075FA4FF4003108AA284631F099
S31500003F3041F818A82EF06CFA4FF4A021284618AACA
S31500003F4031F038F8631E039305F134070DF11009BB
S31500003F502B6DA44A12EA030B00F00681C3F3CE339D
S31500003F60BAFBF3FB03FB1BABEB6C00210093039A3C
S31500003F70AB6C504612F062F9BBFA8BFB064638462C
S31500003F8011F0CEFE4FEA5B1BD8460446C8B1E36883
S31500003F90B34203DC2369B34280F2B9804FF40031A7
S31500003FA0284608AA31F006F84FF4A021284618AA98
S31500003FB031F000F82146384611F0BAFE04460028D2
S31500003FC0E5D106AB00935A464B4651462846FFF7C5
S31500003FD0E1FDB5F85030C3F30E03B8F1000F40F021
S31500003FE0AC804FF00008249A9A4500F0AA80BAF1F6
S31500003FF0000F7FD195F84430082B08D0102B06D03F
S31500004000022B00F0E480042B00F0E1806A6638465B
S3150000401011F086FE0446002800F0E1805FFA8AFB74
S3150000402009E0A3695B4532D02146384611F080FE8F
S315000040300446002848D0E368B3420CDC2369B34247
S3150000404009DBB8F1000F48D04FF400332846626808
S3150000405008A9FFF7EBFC63695B45E2D194F83430BD
S31500004060D8074CBF149A249A04F1240399E8030054
S3150000407083E80300D10706D595F84430022B34D0E7
S31500004080042B32D0013AA369E2615B45CCD199E8B1
S31500004090030094F834309A074CBF149A249A04F11A
S315000040A02C0383E80300D30706D595F84430022B8A
S315000040B01DD0042B1BD0013221462262384611F056
S315000040C037FE04460028B6D1029B0AF1010A534581
S315000040D07FF43EAF29B0BDE8F08F4FF4A023284609
S315000040E0A26818A9FFF7A2FCB5E70132CBE7013AAF
S315000040F0E2E76A66384611F013FE044600288DD1C1
S31500004100029B0AF1010A53457FF422AFE2E7B8F1B8
S31500004110000F47D04FF400332846626808A9FFF71E
S3150000412085FC06AB00935A464B4651462846FFF798
S3150000413031FDB5F85030C3F30E039A45149A7FF457
S3150000414056AF95F84430082BD4D0102BD2D0022B82
S31500004150CFD0042BCDD03846AA6611F0E1FD044637
S3150000416000287FF45BAFCBE7EB6C59460093039ACC
S31500004170AB6C504612F062F80646384611F0D0FD98
S31500004180D846044600287FF402AF06AB00932246C9
S315000041904B4651462846FFF7FDFCB5F85030C3F3B1
S315000041A00E031EE74FF4A0232846A26818A9FFF7BE
S315000041B03DFC06AB5A46009351464B462846FFF750
S315000041C0E9FCB5F85030249AC3F30E030CE73846E1
S315000041D0AA6611F0A5FD044600287FF41FAF4FF034
S315000041E0010AB5E60080FF3FF0B500246FF0604598
S315000041F0064689B0CDE901541C468B6A15460093E4
S31500004200CB6A06A8D1E9071213F0E2F996F8443012
S31500004210102B1CD8DFE803F044441D1B1D1B1B1B81
S31500004220091B1B1B1B1B1B1B0900069A296802EB9B
S31500004230D273A1EB63012160079B0A446968A260FF
S3150000424003EBD372A1EB620213446260E36009B030
S31500004250F0BD079B6A6803EBD3735B105B421A449D
S3150000426062606A68D21AE26096F84430022B41D046
S3150000427013224FF4003130462F6835F033FA0346E7
S315000042801F44276013224FF4003130462D68069EE6
S31500004290059335F027FA35440544A56009B0F0BD0D
S315000042A0069B2A6803EBD3735B105B421A442260B9
S315000042B02A68D21AA26096F84430012B0DD010223B
S315000042C04FF4003130466D6835F00CFA079B281A1A
S315000042D0C31AE060636009B0F0BD11224FF40031EB
S315000042E030466D6835F0FEF9079B2844034460604C
S315000042F0E360ACE72B68069A4FF400319F1A30460C
S31500004300122235F0EFF90346FF1A276012224FF406
S31500004310003130462D68059335F0E4F92D1AA56075
S3150000432095E700BF2DE9F04F8346ADF5077D0846BA
S31500004330069131F0BBF8BBF85030C3F30E03012BE6
S3150000434040F2BA80824652A82DF09CFB4FF4003111
S3150000435052AA5846CDF858A130F00AFD22A82EF0F0
S3150000436057F84FF40031584622AACDF898A030F0FD
S3150000437021FE9BF84430102B00F0A280082B00F0A1
S315000043809F8032A82EF044F84FF4A02132AA584656
S31500004390CDF8D8A030F00EFE42A82EF039F842AA89
S315000043A000215846CDF818A130F004FEBBF8502085
S315000043B0C2F30E030393002B7ED04FF0000E55463A
S315000043C07746013B04930BF134080DF13809CDF81B
S315000043D014E0DBF850308B4A12EA03060CD0C3F324
S315000043E0CE33B7FBF3F203FB1273002B40F0FC81D4
S315000043F00126059B01330593DBF84C300021009321
S31500004400049ADBF84830384611F018FF0446404657
S3150000441054975695559411F083FC824600B3DAF80A
S315000044200C30A34203DCDAF81030A3424FDA4FF423
S315000044300031584652AA30F09BFC4FF400315846E2
S3150000444022AA30F0B7FD4FF4A021584632AA30F028
S31500004450B1FD5146404611F06BFC82460028DED184
S3150000446013AB0093324611AB39465846FFF792FB21
S315000044709BF853305B0600F1B981002E40F00D81A8
S31500004480484611A910F002FD99E8030039AB83E80C
S315000044900300484613A910F0F9FCCDE934743BAB90
S315000044A099E8030083E80300284632A92DF0CAFFE5
S315000044B0039B0137BB428CD10DF5077DBDE8F08F1C
S315000044C09DF8C53023F004038DF8C53059E7002E5A
S315000044D000F09081DAF80460002E00F0C5815821C2
S315000044E030461DAA12F062FA012840F0AF811D9BEA
S315000044F0ADF86C311B0C8DF86E31592130461DAA72
S3150000450012F054FA012840F098819DF874305B212E
S3150000451030461DAA8DF8983112F048FA012840F06D
S3150000452083811D9B30465A211DAA5D9312F03EFAE7
S31500004530012840F070811D9B5A934FF40033584672
S31500004540DAF8042022A9FFF771FA13AB00930122CF
S3150000455011AB39465846FFF71DFB9BF853305E06F4
S3150000456040F19B80069830F0A1FF0023DBF8402045
S31500004570CDE91D33CDE91F3307902193002A00F0C2
S315000045809D81DBF86010BDF814308B420EDC03F120
S315000045908043013B52F8233043B1002259939DF8E2
S315000045A09C3162F300038DF89C3101E0002359939E
S315000045B06C224FF40031584635F094F803466D22CC
S315000045C04FF40031089058466B9335F08BF803464C
S315000045D0099070224FF4003158466B9335F082F8FB
S315000045E09BF844300A906B90102B56D8DFE803F006
S315000045F00C0C0C550C5555556E5555555555555570
S315000046006E0000BF0080FF3F089A139B0DF1640AFD
S3150000461013446B93099A149B584613446C936BABE3
S315000046201A460B9352A95346FFF7DEFD0A9B5246E4
S31500004630C3F31206002E40F3D280102107982BF008
S31500004640FDFF524652A90A902DF066FA504610F028
S3150000465009FC0990504610F00BFC08900B982CF0C2
S3150000466033FF0999089A01EBD17102EBD272491016
S3150000467052100A9B7C917D920B9952460798729331
S3150000468077962DF061F89DF89C31DA0705D5002262
S3150000469062F3000359928DF89C31484611A910F037
S315000046A0F5FB99E8030029AB83E80300484613A904
S315000046B010F0ECFBCDE924742BAB99E8030083E8FA
S315000046C00300284622A92DF0BDFEF1E677224FF41D
S315000046D00031584635F006F882460E224FF4003176
S315000046E05846CDF8ACA134F0FDFF6BAA034616463A
S315000046F0114658466B930F330B920D9331F03AFAED
S31500004700304610F0AFFB0C90304610F0B1FB0C9A1F
S3150000471000EBD07002EBD2724310B3EB620F00F3E2
S31500004720EB800B9810F0A4FB00EBD07043101E46F4
S315000047306B9B584699196C9B9A19CDE91512032261
S315000047404FF4003134F0CEFFDBF85820BBF85010A0
S3150000475007FB02F2C1F30E0102EB8202520001399D
S31500004760B2FBF1F1DBF85C200AEB8A0C02EB820269
S3150000477001EB4C0101EB42019BF844200DF1640A68
S31500004780082A15ABCAF8000000F0BE80102A00F017
S31500004790C1800020089E1A6832440244099E586867
S315000047A03044CDE917200A9AD002C2F3120603D587
S315000047B012030E4400F193800093002301934FF4FB
S315000047C0807317A81A4610F03BFB17AA53465846A3
S315000047D052A9FFF709FD002E52463FF72EAF079864
S315000047E052A92DF099F94EE7002605E6002E3FF472
S315000047F047AEB7E65846DAF8082032A94FF4A023A8
S31500004800FFF714F913AB009332463946584611ABFD
S31500004810FFF7C0F934E65A224FF40031584634F017
S3150000482061FF03466B9087E65B224FF400315846E2
S3150000483034F058FF03466B9074E659224FF400316A
S31500004840584634F04FFF6B90C3B260E658224FF4DF
S315000048500031584634F046FF6B90ADF86C01C0F35A
S3150000486007408DF86E0148E658224FF4003158464D
S3150000487034F038FF034659224FF400316B93ADF8FC
S315000048806C315846C3F307438DF86E3134F02AFF76
S3150000489003465B224FF4003158466B938DF89831EE
S315000048A034F020FF03465A224FF4003158466B93EA
S315000048B05D9334F017FF6B905A903EE62346142121
S315000048C0184A1DA80DF008FE1DAB59939DF89C31A2
S315000048D043F001038DF89C316AE6A6F56166B6F5EC
S315000048E0616FFADC6FF4617040F2DA523018904270
S315000048F098BF06F5E1665FE7304610F0B3FA00EBC5
S31500004900D07043101E4613E7301A5D9A0D9E16446A
S31500004910801B3FE732460D9E02445D9806443046B2
S31500004920104437E7DCF003002DE9F04F0446AFB042
S31500004930084630F0BBFDB4F85030C3F30E03012B2C
S315000049400FD994F844308346102B0AD8DFE803F0D9
S315000049500C0C0C090C090909C609090909090909F8
S31500004960C6002FB0BDE8F08F0EA82DF051FD002136
S3150000497020460EAACDF848B030F01CFB30220021AC
S31500004980204634F0AFFE07461022002120461E972F
S3150000499034F0A8FE05461122002120461E9534F06B
S315000049A0A1FE06461222002120461E9634F09AFEEB
S315000049B08046132200212046CDF8788034F092FEFE
S315000049C094F844303D44022B3E441E9000EB07020F
S315000049D000F09F81042BB84400F0B681012B40F013
S315000049E0BD811A99236A01EBD17103EB6103E16979
S315000049F02B440A44616E0B9301EBD171A2EB610269
S31500004A000D930A92636AA26EA3EB080302EBD272BD
S31500004A1003EB62030C9304AD28460AA910F036FA9C
S31500004A2095E8030015AB83E8030028460CA910F0AF
S31500004A302DFA95E8030017AB83E8030058460EA944
S31500004A402DF000FD04F134031846039311F068F9C4
S31500004A500546002885D0A2461EAF1EE0042A34D0A3
S31500004A600B9C6A6AA146A2EB0308EB6A1E442A68FD
S31500004A70002339465046FEF7D9FF39465846CDE958
S31500004A802584CDE927692DF0DDFC2946039811F030
S31500004A904FF9054600283FF464AF38462DF0B8FCC0
S31500004AA03A4600215046CDF888B030F083FAEB69DB
S31500004AB02E6A9AF8442003EBD37306EBD676022AC5
S31500004AC04FEA63034FEA6606C8D1AC6ADDF8288070
S31500004AD01C442B6BA3EB06094646C8E70EA82BF031
S31500004AE003FE0AAD002120460EAACDF848B030F0EC
S31500004AF0E9FA2946204606AAFEF7F8FFD4E9162366
S31500004B00A16C1A4400920846E26C11F097FBD4E9B6
S31500004B1016231A440092D4E912120646104611F0E2
S31500004B208DFB069BCDE9176095E80300ADF86C3068
S31500004B3019AB83E8030058460EA92BF0EDFD04F1EE
S31500004B4034031846039311F0EBF8824600283FF42D
S31500004B5008AF1EAFB8460DF1300949E00898269017
S31500004B605221284608AA11F021FF012840F08F8023
S31500004B70089BADF894301B0C8DF8963053212846CF
S31500004B8008AA11F013FF012879D19DF820008DF8AD
S31500004B90B4005121284608AA11F008FF012864D163
S31500004BA0089B03F001039DF8B510284663F3000146
S31500004BB08DF8B51008AA542111F0F8FE01284DD140
S31500004BC00898079B2C90ADF8AC3029AB99E8030008
S31500004BD0CDE9277683E80300414658462BF09CFD35
S31500004BE05146039811F0A4F8824600283FF4B9AE66
S31500004BF040462BF079FD002142462046CDF888B08C
S31500004C0030F060FA4946204607AAFEF76FFFD4E95E
S31500004C1016231A44DAF80C000092D4E9121211F0A5
S31500004C200DFBD4E916231A440746DAF81000009261
S31500004C30D4E9121211F002FBDAF8005006469DB3D1
S31500004C405021284608AA11F0B1FE012886D050222C
S31500004C500021204634F046FD099080E754220021C9
S31500004C60204634F03FFD0990ABE751220021204653
S31500004C7034F038FD031E18BF0123099093E7532231
S31500004C800021204634F02EFD0990C0B27FE7522263
S31500004C900021204634F026FD0990ADF89400C0F3BB
S31500004CA007408DF8960069E729465222204634F0DF
S31500004CB019FD0346294653220993ADF89430204640
S31500004CC0C3F307438DF8963034F00CFD03462946AE
S31500004CD05022204609938DF8B43034F003FD034684
S31500004CE02946512220460993269334F0FBFC0346BD
S31500004CF00993003B18BF012329469DF8B55054225D
S31500004D0063F3000520468DF8B55034F0EBFC0990AE
S31500004D1057E71A99636A01EBD17103EB61039B1A9A
S31500004D20226A1544626E013B02EBD272A5EB620564
S31500004D300A93A26E0C93A36A02EBD2729B1B03EB3F
S31500004D4062030B950D9366E61A9AE36902EBD2723B
S31500004D5003EB6203226A43441544E3E74BB91A9A0C
S31500004D60A36A02EBD27203EB6203E2699B1B424425
S31500004D7040E600231A463DE670B58B6B0E4601F100
S31500004D8034056BB1284610F0C7FF04462846214675
S31500004D9010F09AFF20460EF027F9B36B002BF1D1E5
S31500004DA02846BDE8704011F029B800BF38B50C465A
S31500004DB0382104F1340010F02DFF002364220E4D3B
S31500004DC001214FF4877025658725C4E9123294F8CE
S31500004DD05420C4E9193363F30002A06584F8441033
S31500004DE0236684F854202364E5652046BDE83840F0
S31500004DF010212FF0EBBA00BF0B80024070B51F48A0
S31500004E000C4630F077FA012800D070BD204610F02D
S31500004E10E1FC0546204610F0D9FC1D2D064620D0A3
S31500004E20202D16D190F95330002BEEDAFEF79EFDB9
S31500004E303046FFF75FF896F854302146DB073046D8
S31500004E4014D5FFF771FD21463046BDE87040FFF7E7
S31500004E5069BA1B2DD9D12046BDE87040642130F0D7
S31500004E6045BB90F95330002BE0DA70BDFFF75AFAD4
S31500004E7021463046BDE87040FFF756BD5C01040090
S31500004E8030F0F6BC2DE9F04305460F4685B0002804
S31500004E904CD04FF480764FF00008B14670220021C6
S31500004EA0284634F01FFC03466E220021284698440B
S31500004EB0029334F017FC04466F2200212846029420
S31500004EC034F010FC0346012CB8BF0124012B1A460E
S31500004ED0B8BF0122029306FB02F328461E1235F0E4
S31500004EE0EDFB09FB04F405460FFA88F84FEA24297E
S31500004EF00028D3D14FF48032B9F1000F01D092FBD4
S31500004F00F9F24FF48033C8F100010EB193FBF6F3CA
S31500004F100024384600260027019402AC0094CDE90F
S31500004F2002670FF08DFF05B0BDE8F0834FF4807384
S31500004F3001461A46ECE700BFF0B5002187B00546EA
S31500004F4035F0C0FB044608B35A224FF480212846A8
S31500004F5034F0C8FB03465B224FF4802128460493B5
S31500004F601D4634F0BFFB0346204600261C4604932C
S31500004F706FF0604702F068FB234601462A4604A804
S31500004F80CDE90176009612F023FB049807B0F0BD38
S31500004F902DE9F0415A2284B00F460021064634F02E
S31500004FA0A1FB05465A224FF480213046009534F085
S31500004FB099FB04462846009415F07AF805462046E3
S31500004FC015F076F85C2200218046304634F08AFBE4
S31500004FD0044605EB080303EBD3733046356A0094A9
S31500004FE004EB630430F0B8FD034603EBD37304EB24
S31500004FF0D47205EB6303A3EB62031C447B6030466B
S315000050006946FC6030F0F8FC009A029B3A60BB608F
S3150000501004B0BDE8F08100BF2DE9F04FBFB00546F2
S3150000502010F0D8FB0446284610F0D0FB1D2C06468F
S3150000503004D0202C1CD03FB0BDE8F08F284630F0BD
S3150000504035FA044615A93046FFF7A2FF19A82DF038
S315000050506DFA304619AA4FF480211D942FF010FCEA
S31500005060204615AA19A92DF0E9FA3FB0BDE8F08F40
S31500005070284630F01BFA054619A82CF003FD19AA9C
S315000050804FF4802130461D9505F118042FF070FE6F
S315000050900DAF304609A9FFF77BFF2146384609AA1E
S315000050A00FF0E2FA0028C6D00021304635F00AFBA0
S315000050B0824602F0B5FC28B19DF8B73043F04003B4
S315000050C08DF8B730504602F0BFFADDE9233B804643
S315000050D03046DDF88490059330F038FD059B4A464E
S315000050E0CDE9003001205B464146029007A812F048
S315000050F06FFA304630F030FD5A22804600213046A5
S3150000510034F0F0FA8346CDF854B0DBF80C20DAF828
S31500005110203002EBD27203EB6203326A08EBD871DD
S3150000512002EB61025046A3EB02094FEA610830F038
S3150000513013FDDBF80C30089AC01A0028C4BF4FEAEA
S31500005140893999FBF0F9219B316ADB688844D21AC8
S3150000515009FB02F203EBD373002108EBA2383046B9
S315000051603022A8EB630834F0BDFA834612220021F0
S315000051703046CDF854B034F0B5FA814613220021FA
S315000051803046CDF8549034F0ADFA034608991590A0
S3150000519041449DF8B720706A1491F16942F0080203
S315000051A08944C01A8DF8B720CDF8488009EB0B0367
S315000051B00DF15408A0EB0B001193139094E80F0027
S315000051C088E80F0097E80F0084E80F00504602F0C9
S315000051D03BFA034619A9284611AA20932CF09CFCF9
S315000051E098E80F0084E80F0025E700BFF0B5046CCF
S315000051F0436B83B0B3FBF4FC836B6408B3FBFCF630
S315000052000CFB04F40CFB16332344B3FBFCF683635C
S315000052100CFB16332344C3635A220021054634F09F
S3150000522061FA04465C2200212846019434F05AFAB9
S3150000523006462046019614F03BFF0446284630F009
S3150000524095FC07460021284635F03CFA264404EB37
S31500005250D474A96B07EBD7776410C4EB670401FB22
S31500005260164103B0BDE8F04030F002BB2DE9F0472F
S315000052708A4698B00021064635F024FA00285ED00A
S31500005280054602F0E1F900210246284634F05EFDAB
S31500005290022857D0032875D00021284630F0CEFAD0
S315000052A05A220021304634F01DFA07465C220021BE
S315000052B03046009734F016FA04463846009414F047
S315000052C0F7FE8146304630F051FC67220746002142
S315000052D0304634F007FA07EBD77780460090BAF1EC
S315000052E0000F58D009EB040A09EBD9746410C4EB1B
S315000052F0670498B3B36B684603FB1A440EF0A4FF29
S31500005300294668460FF010F92F4968460FF00EF946
S31500005310284630F0ABFB2246014668460FF00EF9F0
S31500005320414668460FF004F9684628490FF010F91F
S31500005330684627490FF008F968460EF09FFF18B037
S31500005340BDE8F087304630F00DFC0446284630F0C4
S31500005350FDFB211A01EBD17149109EE796F8443006
S3150000536003F00303012B26D0B36B03FB1A44284634
S3150000537015490EF0EBFF2146284618B0BDE8F04768
S3150000538030F076BA304630F0EDFB0446284630F071
S31500005390DDFB211A81E796F844307F1003F0030302
S315000053A04C44012B09EBD979A7EB690707D0B36BFE
S315000053B003FB1474DBE73046FFF718FFD4E73046EB
S315000053C0FFF714FFF3E700BF814E000059550000B8
S315000053D0954401002DE9F0470846AEB00C4610F0A2
S315000053E0F9F91D2825D0054621465A482FF082FF97
S315000053F0012802D02EB0BDE8F087204610F0E6F96D
S315000054001B2D064675D1204610F0E8F905463046B4
S3150000541035F054F9FFF790FD0446304630F096FB20
S315000054202B68241A9C42B8BF1C462C602EB0BDE8DF
S31500005430F087204610F0CAF9204610F0C7F9054655
S3150000544035F03CF9034620461C4630F02FF8064658
S3150000545015A82CF017FB2046002115AA19962FF047
S3150000546087FC284602F0DCFA28B19DF8A73043F005
S3150000547040038DF8A73006F118070DF104080DF169
S31500005480140997E80F0088E80F003946484604F1EA
S315000054901C020FF0E9F80028ACD099E80F0087E865
S315000054A00F00204609A9FFF773FD2B6A0DAC0E937A
S315000054B06B6A22460F93EB6939460D930A9B204689
S315000054C0109305F11C0A0FF0CFF8E8B9EB692246F4
S315000054D00D930C9B39460E936B6A20460F93AB6A6D
S315000054E010930FF0C1F838BB98E80F0087E80F005B
S315000054F080E7312D7FF47EAF35F0E0F800212EB045
