S01F00006C76676C5F6578744275734C43445F656B5F7261366D342E737265636B
S31500000000186F032049F70300B1F5030045F7030015
S3150000001045F7030045F7030045F7030045F70300DE
S31500000020000000000000000000000000D5E9030009
S3150000003045F7030000000000EDE9030055EA030060
S31500000040CDF20300EDEE0300EDEE0300000000002C
S31500000050000000000000000000000000000000009A
S31500000060000000000000000000000000000000008A
S31500000070000000000000000000000000000000007A
S31500000080000000000000000000000000000000006A
S31500000090000000000000000000000000000000005A
S315000000A0000000000000000000000000000000004A
S315000000B0000000000000000000000000000000003A
S315000000C0000000000000000000000000000000002A
S315000000D0000000000000000000000000000000001A
S315000000E0000000000000000000000000000000000A
S315000000F000000000000000000000000000000000FA
S3150000010000000000000000000000000000000000E9
S3150000011000000000000000000000000000000000D9
S3150000012000000000000000000000000000000000C9
S3150000013000000000000000000000000000000000B9
S3150000014000000000000000000000000000000000A9
S315000001500000000000000000000000000000000099
S315000001600000000000000000000000000000000089
S315000001700000000000000000000000000000000079
S315000001800000000000000000000000000000000069
S315000001900000000000000000000000000000000059
S315000001A00000000000000000000000000000000049
S315000001B00000000000000000000000000000000039
S315000001C00348044B834202D0034B03B118477047E0
S315000001D05C0000205C00002000000000064B074980
S315000001E0C91A891048BF0131491003D0044B0BB11D
S315000001F001481847704700BF5C0000205C000020E3
S315000002000000000010B5064C237843B9FFF7D8FF6D
S31500000210044B13B10448AFF300800123237010BDD3
S31500000220800000200000000070650E0008B5054B38
S315000002301BB105490548AFF30080BDE80840FFF74C
S31500000240CDBF00BF000000008400002070650E00D6
S3150000025070B508460C463AF0FFFF064636F010F930
S315000002600546304636F012F929460246204635F054
S31500000270E7FF012120461AF0FBF8204634F0C4FCC3
S31500000280054620463AF030FE33F04CFC0F4E00EBAC
S31500000290D07042103146284635F0D2FF284600215C
S315000002A01AF0E6F80223002128461A461AF0ECF85E
S315000002B0204634F0A9FC044601211AF0FDF8314627
S315000002C02046BDE8704035F087BF00BF64000020BF
S315000002D010B50C460C4A2046114635F0B1FF0023F6
S315000002E00E222046094935F015FD2046802134F0BE
S315000002F099FC2046032137F049FD2046BDE8104011
S31500000300032137F051BD00BF640000201103000037
S315000003102DE9F04383B0054615F0DEFD0446284678
S3150000032015F0D6FD0E2C02D003B0BDE8F0830746CB
S315000003301AF006F910B1037A012BF5D0384636F0DB
S31500000340ABF80546384636F0ABF8064669463846F9
S3150000035037F074FE009B05EBD57203EB6208019B38
S3150000036006EBD67203EB620998FBF5F899FBF6F9F2
S31500000370002406FB09F905FB08F838463AF0B6FFF3
S31500000380A04219D9214638463AF06AFF054635F0AB
S31500000390D9FF0646284636F003F8B04504F10104B5
S315000003A0EBD18145E9D17D6300222321384695F8BA
S315000003B0344035F03DFC00E00F242146384637F046
S315000003C0D5FC03B0BDE8F08310B50C46044A2046C0
S315000003D0114635F035FF2046BDE8104037F00ABC1F
S315000003E064000020704700BF30B5672299B04FF413
S315000003F0C021054639F034FE009058B928461949FF
S3150000040014F05CFA95F86C3043F0010385F86C3013
S3150000041019B030BD0446684614F0CEF92946684640
S3150000042014F0E4FB68460F4914F0E2FB21466846E7
S3150000043014F0E0FB2146684614F0F0FB0022684603
S31500000440012114F0DDFB6846074914F0DFFB4FF08D
S31500000450FF31684614F0E6FB684614F0C7F919B098
S3150000046030BD00BFD9070000914B01002DE9F043D4
S31500000470C7B0054615F02CFD0446284635F09AFC13
S315000004800646606B07F0F0F894F86C30DB0702D490
S3150000049047B0BDE8F083054621A832F047FC4FF48B
S315000004A0C021204621AA259634F06EFE226E636B8B
S315000004B0E06DD3E9077302EB070C626E1844134430
S315000004C00793A36D21A93B44CDE9043004AA304625
S315000004D0CDF818C032F0B2FC30224FF4C0212046CD
S315000004E039F0BEFD074612224FF4C0212046089778
S315000004F039F0B6FD03464FF4C0211022204603EB27
S315000005000708089339F0ACFD4FF000090890A26E79
S31500000510214B15441B680744CDE9029928469847A4
S315000005202946024602A812F0B7FB049B5822434410
S315000005300493059B49463B44606B059339F090FD57
S31500000540034608A80893ADF80430C3F307438DF8B3
S31500000550063031F097FE4FF4C021204608AA0C96CB
S3150000056035F08AF89DF8A430022B05D80199119828
S3150000057015F044F900288BD19DF87430304643F0CD
S31500000580010304AA08A902AC0F948DF8743031F067
S31500000590C3FE47B0BDE8F08310390400C86B10B540
S315000005A00C4618B112F0D8FF0023E363206C18B193
S315000005B012F0D2FF00232364A06B18B112F0CCFF17
S315000005C00023A36310BD00BF2DE9F04F5A228BB064
S315000005D00021044639F044FD05465C2200212046F0
S315000005E0069539F03DFD0690002C00F0CE800646BB
S315000005F0606BD4F8548007F037F8664B41461B68A9
S3150000060083469847644B0BEB00021B68002181462A
S315000006101046029303929847074628461AF048F96F
S315000006200D2F824600F2B28042F20143FB4013F0E6
S31500000630010F0CBF39462021002228461AF000F986
S31500000640414604AA8046606B07F012F8636B1846B1
S31500000650019307F009F8019B0246002118463AF07B
S3150000066095F8616B049BCA6913444A6A43449342F2
S3150000067027DD94F8781011F0080122D1032820D044
S31500000680059B56443344049101910593002F7FD076
S31500000690424B03981B68984781440199029B0BEBD8
S315000006A0090098470D28014606D842F20143C34087
S315000006B013F0010F18BF2021284600221AF0C0F8B7
S315000006C0804630224FF4C0212046C4F8689039F0A5
S315000006D0C7FC074610224FF4C0212046069739F082
S315000006E0BFFC034611224FF4C021204603EB070B43
S315000006F0069339F0B5FC054612224FF4C021204678
S31500000700069539F0ADFC064613224FF4C02120466B
S31500000710069639F0A5FC0346616B049806933D44A2
S315000007203E441F44861BA36D0744C869059A0344CB
S3150000073006930B6AA2EB0B0B1544E26D55441A4463
S315000007400792226E47441044626E08901344204676
S3150000075006A9013D013F099336F08CF8C4E91875E6
S31500000760C4E9166B636B2046DA6906A91644069639
S3150000077017441A6A08970BEB020315440793099569
S3150000078036F078F80BB0BDE8F08FFEE7394653E750
S31500000790202191E7003904000839040010390400CB
S315000007A070B5054615F098FB0446284615F090FBF3
S315000007B0313C06463AF050FD012C00D970BD054685
S315000007C00021304606F02AFE2846FFF7FDFE2846A1
S315000007D0BDE87040FFF708BE90F86CC00CF001024F
S315000007E08A421DD00A1E18BF0122F0B5D0E918644E
S315000007F062F3000CC56DD0F834E0876D85B080F8E3
S315000008006CC0DEE9073C69461F44654433446444D2
S31500000810009702930195039436F02CF805B0F0BDCD
S31500000820704700BF002859D0F0B5436D04468B428F
S315000008300D4683B050D0384B406B1E6806F014FF4F
S31500000840B047002DB8BF2D18A842064604DB47F670
S31500000850FF739D4218BF2E462046666537F0CAF9DB
S315000008605A220021204639F0FBFB054631466A46EE
S31500000870606B009506F0FCFE28461AF019F806464D
S315000008802046019D37F0BCFA854228DB204635F02C
S3150000089007FE019B07462046F51837F0B1FA2B1ADA
S315000008A0BB4230DC2046009D37F0B0FA854224DB9F
S315000008B0204635F0F1FD009B07462046F51837F037
S315000008C0A5FA2B1ABB4210DC009B20462365FFF7D6
S315000008D08BFD2046FFF778FE03B0F0BDFEE7012250
S315000008E02046019937F02EFDD0E7009B0122DB1B45
S315000008F02046991937F010FDE6E7012220460099B7
S3150000090037F00AFDD4E7019B0122DB1B204699192B
S3150000091037F018FDC6E700BFF8380400012270B5AD
S3150000092040F2DC50002591F86C304A6591F8782049
S3150000093023F0030343F0030322F00E0281F86C3028
S3150000094081F87820C1E91250C1E91055C1E90D5569
S31500000950CD630D6508460C4606F054FD0646642038
S31500000960666314F00FFE01463046134E35F034FC34
S31500000970606B124906F052FD31462B463222606BFF
S3150000098035F0C8F92B4631223146606B35F0C2F995
S3150000099020464FF4806134F045F920464FF400615B
S315000009A034F090F920462946FFF73CFF2046BDE883
S315000009B07040FFF719BD00BFA1070000C425040061
S315000009C030B5054685B0416D02AA406B06F050FE73
S315000009D05C220021284639F043FB04465A220021B6
S315000009E02846019439F03CFB019019F061FF039B06
S315000009F0044401341C442B6D686BCDE9023435F098
S31500000A0045FD844201DB05B030BD012202A9686BB9
S31500000A1006F006FF014628462C6DFFF703FF2C65FE
S31500000A2005B030BD30B5044685B0416D02AA406BB5
S31500000A3006F01EFE5C220021204639F011FB054619
S31500000A405A2200212046019539F00AFB019019F03F
S31500000A502FFF039B0544013D206D5B1BCDE902037F
S31500000A60012202A9606B06F0DBFE01462046256DD9
S31500000A70FFF7D8FE256505B030BD00BF30B190F850
S31500000A806C3061F3410380F86C307047FEE700BFBD
S31500000A9040B370B590F878300446C3F3C0028A427A
S31500000AA00D4631D061F3C30380F878306420D1B1AC
S31500000AB014F068FD05466FF04041606B35F08CFB25
S31500000AC02946606B002239F0B9FF6FF0404120469D
S31500000AD035F09CFB00232046BDE870401A461946B7
S31500000AE037F046BCFEE714F04DFD0146606B35F06D
S31500000AF073FB2A462946606B39F0A0FF2A4602217D
S31500000B00204639F0A7FBE5E770BD00BF28B190F895
S31500000B1078305B0702D5C06B7047FEE7406B06F086
S31500000B20A3BD00BF08B1406D7047FEE730B110B5F8
S31500000B30046C88B01CB1204608B010BDFEE7214603
S31500000B405A2239F08DFA234642F222026946009073
S31500000B5019F06CFE034C044B002808BF1C462046C7
S31500000B6008B010BD24180400201804002DE9F84F21
S31500000B708146406B06F078FD194B1B68984708B90B
S31500000B80BDE8F88F07464846FFF7D0FF824612F0C9
S31500000B900BF900FB07FB06460BF1010012F0C0FC47
S31500000BA0002580460446204632465146013512F05D
S31500000BB073F8AF423444F6D1002308F80B304146AF
S31500000BC0D9F8340006F02AFC404612F0C5FC484627
S31500000BD0044913F073FE4846BDE8F84FFFF7F4BC2E
S31500000BE0F8380400E5030000006890F878305B07E9
S31500000BF000D47047FFF7BABF10B5C36C044698B06F
S31500000C002BB990F878305B0722D418B010BD68462F
S31500000C1013F0D2FD2146684613F0E8FF68460F49F7
S31500000C2013F0E6FF6846E16C13F0E4FF0122684624
S31500000C30002113F0E5FF6846094913F0E7FF68460F
S31500000C40084913F0E7FF684613F0D0FD18B010BD51
S31500000C5018B0BDE81040FFF789BF00BFE5030000EC
S31500000C60914B0100E90B000020B190F87800C0F329
S31500000C70C0007047FEE700BFA8B138B50446406B18
S31500000C8006F0D6FE4FF6FF73984205460CD0606B11
S31500000C904FF6FF7106F0DCFC606B4FF6FF71BDE8A6
S31500000CA0384006F0DBBCFEE7606B06F0C5FEA842E6
S31500000CB0EDD138BDF0B590F8783005465A070C46A8
S31500000CC083B047D46B6CB3B1002294F90030019223
S31500000CD07BB1304A304B17681E6801A92046B847D9
S31500000CE0B0470146284600F083F8019BE356002BE7
S31500000CF0F3D103B0F0BDAB6C002BE5D121462846FD
S31500000D0000F054F80128F4D1D5E90D032BB106F013
S31500000D10ABFC90F9003003B3686B2246696D06F0B0
S31500000D2097FE2846FFF7A8FF95F878305B0718D49A
S31500000D301A4B20461B686C6D98470146284621448D
S31500000D40FFF770FD00222321284603B0BDE8F040DE
S31500000D5034F06EBFFFF70AFFB4E7284635F08EFD84
S31500000D60DAE7E86B12F020F80646204612F01CF887
S31500000D7001463144E86B013112F0F8FBE86338B103
S31500000D802246696D17F04CF82846FFF735FFCFE786
S31500000D90FEE700BF083904000C390400F8380400E7
S31500000DA010B111B1FFF786BFFEE7FEE770B50C463E
S31500000DB000230E4E242122460546336034F038FFC8
S31500000DC0306830B190F900305BB1214612F02EF850
S31500000DD008B9012070BD35B1316829B12846FFF741
S31500000DE069FF002070BDFEE7FEE700BF9C00002003
S31500000DF0B8B1F0B590F87820044610070B4685B0D8
S31500000E0003D50A290BD00D2909D00025204602A9B1
S31500000E10029300930395FFF7C9FF012802D005B09E
S31500000E20F0BDFEE7364B29461E686846B047A36C00
S31500000E3005468BB9606CE0B190F90030CBB1002368
S31500000E40019305E001A9B047854212D0606C019B71
S31500000E50C356002BF6D1E2E72A4B1B681F4694F8CF
S31500000E607830590748D5E06BB847A36C9842E1D370
S31500000E70D5E794F878305A0736D4D4E90D032BB168
S31500000E8006F0F2FB90F9003093B3606B616D02AA35
S31500000E9006F0DEFD2046FFF7EFFE94F878305B079C
S31500000EA015D5E06B11F080FF054602A811F07CFF16
S31500000EB001462944E06B013112F058FBE06390B122
S31500000EC0616D02AA16F0ACFF2046FFF795FE616D34
S31500000ED020460131FFF7A6FC00222321204634F0EC
S31500000EE0A7FE05B0F0BDFEE72046FFF73FFEC4E7CC
S31500000EF0204635F0C3FCC8E7606B06F0B5FBB3E7E8
S31500000F0008390400F838040030B130B5436D0446A2
S31500000F1083B013B903B030BDFEE77F2301A9ADF856
S31500000F200430FFF743FF01280546F3D1606B06F056
S31500000F309BFB2A460546616D013916F0A1FF29463D
S31500000F40606B06F06BFA2046FFF796FEA36B2BB19B
S31500000F50606B06F089FB90F9003003B394F87830A3
S31500000F60616D5B0710D501390122E06B16F088FF31
S31500000F70E56B284611F018FF01462846013112F0AC
S31500000F80F5FA58B1616DE06320460139FFF74AFC76
S31500000F9000222321204634F04BFEBBE7FEE7204625
S31500000FA035F06CFCDAE700BF2DE9F043B848A3B092
S31500000FB00D4634F023FE012802D023B0BDE8F083AD
S31500000FC0284614F089FF0446284614F081FF631E64
S31500000FD004461F2BF1D801A252F823F05D10000041
S31500000FE05D1000005D100000BB0F0000BB0F00008D
S31500000FF0BB0F0000BB0F0000BB0F0000BB0F0000C3
S31500001000BB0F00005D100000BB0F0000BB0F00000F
S31500001010BB0F0000BB0F0000BB0F00005512000005
S31500001020BB0F00004B120000BB0F0000BB0F0000FF
S31500001030BB0F0000BB0F0000BB0F0000BB0F000082
S31500001040BB0F0000BB0F0000BB0F000071110000BA
S31500001050BB0F0000BB0F00006511000019F070FA0D
S3150000106004460028A9D0284614F032FF90F86C30C8
S3150000107006469F07A1D5204619F068FA02289CD09B
S31500001080204619F063FA042897D0706B09A935F049
S315000010904DF9204601A919F065FA204603A919F071
S315000010A093FA019B002B88DB029A002A85DB0999BB
S315000010B028465B1A0A990593521A069214F00CFFF9
S315000010C00446706B35F0DCF9059B0122002B756B2D
S315000010D0C0F23281984200F3518147F6FF7796F8C5
S315000010E07830980703F0010140F11F81002940F094
S315000010F03381002A40F01C81012C7FF45EAF43F05F
S31500001100010386F878304FF6FF734FF4407130468E
S315000011103767736733F0D6FD39463046FFF782FBF3
S3150000112096F87830DA077FF548AFD6E91C218A426F
S31500001130EB6C40F203818B4202D12B6D9A4205D0B3
S31500001140E964336F30462B6535F098FB24F00804CC
S31500001150032C7FF432AF96F8783023F0010386F83B
S3150000116078302AE7284623B0BDE8F043FFF77EB97A
S31500001170284614F0ADFE0446284634F01BFE05460C
S31500001180606B06F071FA90F90030002B7FF415AF12
S31500001190A36B002B3FF411AF93F90030002B3FF403
S315000011A00CAF09A831F06EF84FF40021204609AAC9
S315000011B00D9534F061FA94F878301B0705D59DF843
S315000011C0773043F008038DF877301222002120464D
S315000011D038F046FF8146132200212046CDF81490B0
S315000011E038F03EFF8046102200212046CDF81480BC
S315000011F038F036FF0646112200212046059638F0C3
S315000012002FFF0746302200212046059738F028FF99
S31500001210034605931E442846984409EB03051F44DC
S31500001220236A09A93344666A05AAA6EB0808A66AD2
S31500001230F71BE669CDF81C803544CDE905530897C0
S31500001240A36B109331F068F8B7E623B0BDE8F0431E
S31500001250FFF7CAB8284614F043FE0168142919D8C6
S3150000126001290ED98B1E122B0BD8DFE803F052266C
S315000012700A0A0A0A1F0A440A0A0A0A0A0A3C342EF9
S315000012805500204623B0BDE8F043FFF7B1BD00BFCF
S315000012906C2904007F29F4D174B1656D2046691C60
S315000012A0FFF7C0FA636D9D423FF487AE204623B038
S315000012B0BDE8F043FFF728BEFEE747F6FF7120467C
S315000012C023B0BDE8F043FFF7ADBA1CB1616D20460F
S315000012D00131F5E7FEE72CB1204623B0BDE8F04327
S315000012E0FFF76EBBFEE72CB1204623B0BDE8F04306
S315000012F0FFF798BBFEE75CB194F878301B07C0D5C2
S3150000130000222621204623B0BDE8F04334F090BCED
S31500001310FEE700212046D3E734B1616D00293FF492
S315000013204CAE20460139CBE7FEE700297FF4F4AE48
S31500001330012C7FF442AEEFE60027D0E62BD2934293
S3150000134003D12B6D99423FF401AFEA64736F3046C7
S315000013502B6535F093FAF9E6022C2CD024F008031D
S31500001360032B7FF4D9AE4FF44071304633F05AFC6C
S3150000137096F87830D9077FF520AECDE605A9284640
S3150000138006F04EFA05A90746706B06F04FFA80F094
S315000013900102D2B2A3E64FF6FF72934203D12A6D41
S315000013A09A423FF4D3AE4FF6FF733046C5E9133386
S315000013B035F064FACAE67767AEE600BF00284DD07E
S315000013C0F0B50D4683B0002947D00446FFF754FC1C
S315000013D0636C002B4CD02F49606B06F01FF847F664
S315000013E0FF712046FFF71EFA94F87830590737D474
S315000013F0002295F9003001927BB1274A274B1768E6
S315000014001E6801A92846B847B04701462046FFF79F
S31500001410EFFC019BEB56002BF3D1A36B2BB1606B5A
S3150000142006F022F990F90030F3B194F878305A07B3
S315000014300BD5E06B12F090F8284611F00DFDE06335
S3150000144068B194F878305B071FD400222321204628
S3150000145003B0BDE8F04034F0EBBBFEE7FEE7FEE785
S315000014600022E36B1A70C3E7204635F007FADCE783
S31500001470A36C002BAFD12946606B05F0CFFF47F672
S31500001480FF712046FFF7CEF9C7E72046FFF76EFB50
S31500001490DBE700BFC4250400083904000C3904004A
S315000014A018B1416D0131FFF7BDB9FEE710B1416DCD
S315000014B009B97047FEE70139FFF7B4B92DE9F043E2
S315000014C00D4683B0012145639046044639F0C8FEB7
S315000014D000210746204639F0C3FE00210646204675
S315000014E039F0BEFE304939F007FF85424FD2002F52
S315000014F04DD0204636F07EFB94F8381011F00C01E2
S315000015001ED015220021384638F0AAFD81463846FD
S31500001510CDF8049034F0C0FF034627222046002170
S315000015201C4638F09DFDC3B2012B019032D009EB69
S3150000153004014246384605FB01F136F0EDFE0FE0A8
S315000015401422384638F08CFD04463846019434F0AF
S31500001550A7FF21184246384605FB01F136F0F2FE98
S3150000156000213046104A39F08DFE80B100240E4F1E
S315000015702A1BB2FA82F201215209013433F0FAFB36
S315000015803A462146304639F07DFE0028F0D103B0B8
S31500001590BDE8F083A14469424246384609FB01F1A1
S315000015A036F0BAFEDCE700BF5833040070B584B0ED
S315000015B0044614F08DFC0546204614F08DFC0446C6
S315000015C0284639F049FE332C064603D00E2C0AD0A5
S315000015D004B070BD30B10022416B04B0BDE870406C
S315000015E0FFF76CBFFEE718F0ABFF10B1037A012BD3
S315000015F0EED0284602A936F021FD96F83830284666
S3150000160013F00C0F27D034F047FF272204460021A1
S31500001610304638F025FDC3B2012B029B04EBD47291
S315000016200CBFC3EB620303EB620393FBF4F401907C
S31500001630756B24EAE47418F083FFB0B101222146E9
S315000016403046FFF73BFFAC42C2D000222321304692
S3150000165034F0EEFABCE734F023FF039B00EBD072C4
S3150000166003EB620494FBF0F4E2E7024621463046BF
S31500001670FFF724FFE7E700BF10B50C480C4634F02F
S31500001680BDFA012800D010BD204614F025FC034603
S3150000169020461C4614F01CFC312CF4D128B1BDE8C0
S315000016A010400022416BFFF709BFFEE790290400B6
S315000016B060B14B1E2DE9F04104460D46072B06D8B6
S315000016C0DFE803F05E99059D05050521FEE700218B
S315000016D039F0C6FD01210646204639F0C1FD94F8D1
S315000016E0383005F00C0813F00C0F14BF012200224D
S315000016F0B8F1000318BF01239A4240F0848084F8B1
S315000017003850BDE8F081092118F0B2FE00212046CC
S3150000171039F0A6FD01210646204639F0A1FD07460F
S315000017203E4934F059FD0121384618F0C5FE002126
S31500001730304618F09DFE0021384618F099FE032128
S31500001740384636F023FB0021384636F02DFB94F858
S31500001750383013F00C0FD2D1204639F0C5FB32F0E9
S31500001760E1F90746642013F00DFF07EBD777014632
S315000017707A10304634F064FD84F83850BDE8F081C4
S31500001780002118F075FE0021204639F069FD01217F
S315000017900646204639F064FD0746204934F036FDFA
S315000017A00121384618F088FE0121304618F060FE07
S315000017B00121384618F05CFE0021384636F0E6FA7C
S315000017C00321384636F0F0FA94F8383013F00C0F4F
S315000017D095D0204639F088FB32F0A4F907466420FC
S315000017E013F0D0FE39460246304634F029FD84F81F
S315000017F03850BDE8F081082118F03AFEC3E7012110
S3150000180018F036FE82E7204639F06EFB32F08AF990
S315000018100746B8F1000FE2D0A4E700BF640000203D
S31500001820F8B50D460026184A2846114685F8386050
S3150000183034F006FD284633F0E7F9284633F0E4F99C
S315000018400446124F314618F013FE3946334633220A
S31500001850204634F05FFA33460E223946204634F0ED
S3150000186059FA3146204636F069FA28460421FFF730
S315000018701FFF2046802133F0D5F92046BDE8F84009
S315000018804FF4806133F01EBA64000020AD150000ED
S315000018902DE9F04F07468B4689B0104691460493D2
S315000018A019F006F87A6B159B0BFB02FB00EB03089D
S315000018B0169B984402EB0B039B4540D2DDE913319E
S315000018C05E464FF0000A0B440593FC6BB30054F8D8
S315000018D026E0BEF1000F2BD0786C02F1FF3CD44518
S315000018E050F82A1000EB8A004FD9043BE218002575
S315000018F054460AE01B78DB070BD550F8043F013449
S315000019006445194405F1010503D252F8043F002B42
S31500001910F0D19EF8003013F0020314D0484618F0B8
S31500001920C7FF159B169AC3181344434523DC7A6BED
S31500001930013602EB0B03B3420AF1010AC5D8404651
S3150000194009B0BDE8F08F0293059B4A46C91A129B5F
S31500001950019100930EF10801049B06A816F0F0F918
S31500001960159A079BA2461344169A2E44134498458B
S31500001970B8BF9846DBE7484618F09AFF159B7A6B86
S3150000198000EB0308169B9844D2E754460025C0E7AF
S315000019904FF0000C2DE9F0431D4604460E4617464F
S315000019A083B0C3F800C04AB163466046626C52F821
S315000019B020200130134487422B60F7D1616B01F17F
S315000019C0FF3E774528BF4FF000081AD206FB01F10B
S315000019D0E36B3A46C3EB870C4FF0000803EB810339
S315000019E0ACEB810C08E00978C9070AD5606C724532
S315000019F06044C158884404D253F8041B01320029BC
S31500001A00F1D127220021204638F02AFB0190C0B2EE
S31500001A100128204639D036F0E7F92B6812221B1A26
S31500001A202B600021204638F01BFB2A6801900244F7
S31500001A302A60636C53F8273043441344013BAB6080
S31500001A4000231A466B603EB1216C51F82210013218
S31500001A500B4496426B60F7D100211022204638F0E5
S31500001A60FFFA03466A6820461A446A60019336F014
S31500001A70C1F96B68181A6860236C53F8263018444D
S31500001A800138E86003B0BDE8F08336F0ADF92B68A5
S31500001A9003442B60204634F0F3FC2B681322A0EBA2
S31500001AA003090021204638F0DBFAA9EB0003AB60FE
S31500001AB0626C019052F8272042449B1A2B60BFE7C4
S31500001AC030B585B0D0E912216B460446FFF760FFBA
S31500001AD00099002919DB2046029D34F0D1FC85428D
S31500001AE027DC019A002A07DB2046039D34F0CEFC52
S31500001AF0854211DC05B030BD01230021204652424B
S31500001B0005B0BDE8304036F0A1BB012300222046D7
S31500001B10494236F09BFBE4E7204634F0B7FC024628
S31500001B20012300212046521B05B0BDE8304036F0A7
S31500001B308DBB204634F0A4FC0123411B0022204625
S31500001B4036F084FBCDE700BF2DE9F04FADF52B7DD8
S31500001B50044614F0BDF90746204634F02BF9044636
S31500001B6004F1180308901A4607F11C011EA81D4629
S31500001B70109313F0DBF818B90DF52B7DBDE8F08F47
S31500001B8022AE95E80F0086E80F001EAB0FCB85E866
S31500001B900F0030220021384638F062FA81461022C2
S31500001BA000213846CDF8149238F05AFA054611222B
S31500001BB000210D903846859538F052FA03461222D8
S31500001BC000210E903846859338F04AFA03460021E4
S31500001BD013220A903846859338F042FA02468592D7
S31500001BE03A6B4E4B3E8E134043F400233B630B90FF
S31500001BF060A8139631F09AF84FF4A02160AA3846EF
S31500001C00649433F0C1FA2EA830F03CFB4FF4A021C7
S31500001C102EAA3846329433F02FFD97F832303E869E
S31500001C2023F0080387F832303B6A38462B445C1EA3
S31500001C3036F0E0F84FF00008231A4B443846199363
S31500001C40CDF85880CDF8608036F0CEF827220546CC
S31500001C504146384638F004FA8590BC6BC6B2002C73
S31500001C6000F0BC811195C3463546CDF81880CDF8F5
S31500001C7048903B6C069A199953F8222001318B182B
S31500001C8003F1FF3C219B17919942CDF864C000F304
S31500001C90A581012D00F0F9810A99FB690B44119980
S31500001CA0013B5B1A12990B441893786B002800F0DD
S31500001CB08F8102EBD27253100F9303464FF0000947
S31500001CC0F96B60469C4651F82B304E4605954FEA17
S31500001CD08B0A002B00F01E811B787A6C0793059BFC
S31500001CE002EB860E012B00F01D81189B0CF1FF38CC
S31500001CF00133169352F82620B045134403F1FF33FF
S31500001D00189340F21E81AAF104023446002381464C
S31500001D10059DA8EB060811440AE000BF0000F7FF86
S31500001D20189A013302444345189204F1010411D074
S31500001D3051F8042F72B11278D2070BD5012D5EF837
S31500001D40040FEDD1169A0133121A4345169204F187
S31500001D500104EDD1484605950BF1010B9B441F9BF1
S31500001D60834200F3CB80DDE917C19DF8ED21DDF854
S31500001D7058E055071D90CDF868E01C91CDF86CC071
S31500001D8002F01F030AD5FA690A9D2A44724505DA4C
S31500001D907A9A02EBD272AEEB62021A929A070AD5CF
S31500001DA03A6A0D9D2A44624505DA7A9A02EBD272A6
S31500001DB0ACEB62021B921D070ED57A6A0B9D521B75
S31500001DC0013A8A4208DD7A9A02EBD27C02F00102DD
S31500001DD002EB6C020A441C92D9070ED5BB6A0E9A16
S31500001DE09B1A013B834208DD7A9B03EBD37203F017
S31500001DF0010303EB620303441D93FB6C069A9342B3
S31500001E0003D1BB6CB34200F0F2800DF50579942244
S31500001E1060A948460DF58E7810F03EFF64224046D4
S31500001E202EA910F039FF069B494608981AAACDE953
S31500001E308736C8E9023631F001F8FB6B53F80A30F1
S31500001E40002B59D012224FF4A021384638F008F959
S31500001E50034613222A934FF4A0213846099338F0FB
S31500001E60FFF8054610224FF4A0212A95384638F08F
S31500001E70F7F8814611224FF4A0213846CDF8A890F4
S31500001E8038F0EEF8099B1699189A1944179B521BBD
S31500001E90199D4B44CDE927322B1A2993079B2AAE6D
S31500001EA013F002031D46269130604DD098F853304A
S31500001EB026A843F0080388F85330FB6B369A53F88C
S31500001EC00A30D8F8285003F10809D8F82C300992BE
S31500001ED0079313F029FB0121099ACDE90101079B1C
S31500001EE0494614A8009515F02BFF304616AA1EA9E0
S31500001EF012F01CFF002854D1D7F834C0661CB44534
S31500001F0064D9F96B199851F82B304FEA8B0A002BDC
S31500001F107FF4E2AE0793059B7A6C012B02EB860EEB
S31500001F207FF4E3AE169B0CF1FF38013B189352F891
S31500001F302620B045A3EB020303F1010316933FF6F7
S31500001F40E2AE3446002307E7FB6B369A53F80A30B5
S31500001F50D8F8281003F10809D8F82C3026A80C92D6
S31500001F600993079113F0E0FA0799CDE90105099B5A
S31500001F700C9A009114A8494615F0E2FE159B0F999C
S31500001F80179A03EBD3735B105B420A44D118D21A3B
S31500001F9027912992304616AA1EA912F0C7FE0028DC
S31500001FA0AAD096E80F00109D85E80F00FB6B41460E
S31500001FB053F80A300898083326AAC8F81C3030F0BF
S31500001FC0ABF91EAB0FCB85E80F0095E7059DBC6B03
S31500001FD0069B01339C4206933FF64BAE109C22AB08
S31500001FE00FCB84E80F000DF52B7DBDE8F08F3A8E00
S31500001FF002F06001A1F12003B3FA83F302F00800B6
S315000020005B0902F0040C92074FEA431333D543F001
S315000020100203BCF1000F01D043F0040308B143F002
S3150000202008033B8697F832300DF5057943F008032F
S3150000203087F83230484630F079FE0DF58E78089DE7
S315000020404046899530F01EF94FF4A0214A4638469D
S31500002050C8F8105033F098F842464FF4A02138469D
S3150000206033F00AFB139B3B8697F8323023F00803C4
S3150000207087F83230D7E6BCF1000FCDD10028CED19B
S3150000208020297FF4C2AE0B46CBE70B997B6A5B1A1D
S315000020901199013B5B1A12995B1A169305E600BF6C
S315000020A0F8B50D46496BD5E90EC20CFB01F3DBB161
S315000020B00024274652F82400A60080B143683BB1AD
S315000020C0184611F049FAEB6B9B595F60EB6B985918
S315000020D011F042FAEB6B9F51EA6BD5E90D1C0CFB34
S315000020E001F30134A342E5D812B1104611F034FAD7
S315000020F0286C08B111F030FA686C18B1BDE8F840E8
S3150000210011F02ABAF8BD00BF012310B50C46C1E98B
S315000021100D33042011F004FAA36B6064980011F0EB
S31500002120FFF98223626C20641360226C1360D4E989
S315000021300D3103FB01F1E06B890011F017FA4FF640
S31500002140FF730022E0630260C4E9123310BD00BFD2
S315000021502DE9F04F12228DB04FF4A021044637F03E
S315000021607FFF054613224FF4A02120460B9537F03A
S3150000217077FF064610224FF4A02120460B9637F033
S315000021806FFF074611224FF4A02120460B9737F028
S3150000219067FF03465B224FF4A021079020460B936E
S315000021A037F05EFF03465C224FF4A02108902046DC
S315000021B00B9337F055FF03465A224FF4A02109909E
S315000021C020460B9337F04CFF824606224FF4A0219F
S315000021D02046CDF82CA037F043FF834607224FF464
S315000021E0A0212046CDF82CB037F03AFFA36B0B9018
S315000021F0EBB181464FF000080799089BCDE90371C2
S3150000220009995246009120464146CDE90156FFF70D
S315000022103FFB4845A8BF48465845B8BF5846236CBB
S3150000222043F82800A36B08F101089845E4D320463B
S3150000223034F066F920460DB0BDE8F04F34F01EBB11
S31500002240F0B5C74885B00C4633F0D8FC012801D05C
S3150000225005B0F0BD204613F03FFE0546204613F0BC
S3150000226037FE6B1E0546332BF2D801A252F823F037
S31500002270592300005923000051220000512200007A
S31500002280512200005122000051220000512200007C
S3150000229051220000512200002F240000512200008C
S315000022A0512200005122000051220000512200005C
S315000022B06D240000512200004D2300005122000031
S315000022C0512200005122000051220000512200003C
S315000022D0512200005122000051220000512200002C
S315000022E0FF2400005122000051220000512200006C
S315000022F0512200005122000051220000512200000C
S3150000230051220000512200005122000051220000FB
S3150000231051220000512200005122000051220000EB
S3150000232051220000512200005122000051220000DB
S3150000233051220000AD24000051220000B724000005
S3150000234000232846C5E91233FFF7BAFB284605B035
S31500002350BDE8F04034F092BA18F0F2F818F0F6F84A
S3150000236000F0FD0001287FF473AF18F0E9F802A928
S3150000237018F0F8F82846029E35F036FD272200218F
S315000023800644284637F06CFEC3B2012B019000F0DC
S31500002390F080EB69122200212846F61A37F060FE1B
S315000023A00190361A6C6B7CB1696C0A689642C0F271
S315000023B00481002305E051F8040F0244B24200F301
S315000023C0D5800133A342F6D100262846039F35F077
S315000023D011FD2B6A0744102200212846FF1A37F008
S315000023E03FFED5F838E00190A7EB000CBEF1000FD8
S315000023F03FF42EAF296C0A689445C0F2D9800023B9
S31500002400013373453FF424AF51F8040F0244944559
S31500002410F6DA002E3FF41CAFAA6CA24203D1EA6C96
S3150000242093423FF415AF2846C5E912438FE734F0CF
S3150000243025FA18F085F818F0BDF84FF6FF73AA6C68
S315000024409A4205D0EA6C9A4202D0002800F0A58094
S3150000245018F076F818F07AF800F0FD0001287FF4FD
S31500002460F7AE4FF6FF73C5E91233F1E6204613F0D7
S3150000247037FD4FF6FF73AA6C01689A42EC6C3FF485
S315000024805FAF9C423FF45CAF6F6BAE6B1139BA42E3
S31500002490B4BF10460020B442B4BF2346002303292C
S315000024A03FF6D6AEDFE801F05856315A05B0BDE822
S315000024B0F040FFF74DBE204613F012FD6C6B002C6A
S315000024C068D000226B6C03EB8404043C043B53F895
S315000024D0041FA3420A44FAD1511EAA6B002A56D001
S315000024E02B6C03EB82050022043B043D53F8044F9A
S315000024F09D422244FAD1013AC0E90012A8E62046DC
S3150000250005B0BDE8F040FFF71FBB0130874229DC6C
S31500002510711E9942C6BF0027013307F1FF379E425D
S31500002520D4BF06F1FF3323EAE373BA4202D19C42D9
S315000025303FF48EAE2846C5E9127334F09FF928465B
S31500002540FFF7BEFA00222321284605B0BDE8F04079
S3150000255033F06EBB0133D9E7013BD7E70138D5E746
S31500002560B429040000280EDB0746D8E71C460126DE
S315000025702BE71322002128466C6A37F071FD241AD6
S315000025800190A61B0EE78BB1013F013BC7E74FF059
S31500002590FF32B1E74FF0FF319FE70246232128467D
S315000025A033F046FB01287FF453AE51E71F46B6E7EA
S315000025B0002E3FF44DAE00232EE70024012604E74B
S315000025C04FF0FF330068436334F058B9416334F089
S315000025D055B900BF0846002112F070B92DE9F04147
S315000025E0D2B0054613F074FC0446284633F0E2FBED
S315000025F005466946204633F057FF08A830F096FB9B
S315000026004FF40031204608AA0C9532F0BDFD6A460B
S31500002610284608A930F012FCD4E90812E069A36A3A
S3150000262004F11C07CDE904013846CDE9062312F072
S315000026307BFF0646384612F07DFF94F8383003F0EB
S315000026400703012B03D0022B68D0864266DB2046A7
S3150000265033F01CFF0646384612F066FF636B871B95
S315000026605A1C00F08B8007FB03F3002BB8BFFF3327
S315000026704FEA232827220021204637F0F1FCC3B277
S31500002680012B08BFA7EB0808012E2D903046B8BFD6
S315000026900120049B013843441844049306901222F7
S315000026A04FF44031204637F0DBFC804613224FF4CE
S315000026B040312046CDF8B48037F0D2FC07461022D0
S315000026C04FF4403120462D9737F0CAFC06464FF4AA
S315000026D04031112220462D9637F0C2FC049A2D90E7
S315000026E0A2EB08020492069A3A440692059A921BB5
S315000026F00592079A02442DA8079230F017FB204650
S315000027002DAA4FF44031319532F03EFD284604AAF9
S315000027102DA930F093FB52B0BDE8F081204633F08E
S31500002720AFFE0646384612F005FF676BA0EB0608BB
S315000027307B1C1AD008FB07F7002FB8BFFF373F12E4
S3150000274027220021204637F08BFC2D90C0B20128AD
S3150000275008BFA8EB0707012EB8BF0126079B013E5D
S31500002760DB1B07939B1B059399E7204632F02AFB58
S3150000277010F0010F14BF47460027E1E7204632F06C
S3150000278021FB10F0010F14BFB8464FF0000871E7A7
S3150000279010B50C464FF0FF3294F83830204623F03F
S315000027A00703626384F83830102132F08BFA204632
S315000027B0082132F037FA2046BDE810404FF4806118
S315000027C032F030BA2DE9F041584898B00C4633F053
S315000027D015FA012802D018B0BDE8F081204613F0A2
S315000027E07BFB0546204613F073FB1B2D064609D0DE
S315000027F0232D4BD01D2DEED1204618B0BDE8F0415B
S31500002800FFF7ECBE12224FF4403137F029FC0546A3
S3150000281013224FF440313046009537F021FC8046B4
S3150000282010224FF440313046CDF8008037F018FCC6
S31500002830074611224FF440313046009737F010FC1E
S315000028404545B8BF4546BD420346B8BF3D464FF471
S3150000285040319D423046B8BF1D46009333F032F9F1
S31500002860034602352046EC1813F03AFB05462B6862
S315000028704FF400319C42B8BF1C4630462C6033F002
S3150000288021F9844211DD28682860A4E760B1672237
S31500002890002137F0E5FB0446009060B9304618B0D9
S315000028A0BDE8F04133F0EABFFEE74FF400313046B1
S315000028B033F008F9E8E7304632F084FA756B00F039
S315000028C001036A1C29D04FEA0328A5EB032383EAF8
S315000028D0E377A7EBE3770021304611F0EFFF684678
S315000028E011F06AFF3146684612F080F968461049D1
S315000028F012F07EF942462946684612F081F968468A
S315000029000C4912F087F907FB04F16846090A12F030
S3150000291071F9684611F06AFFC0E74FF4807713B18A
S315000029200025B846D7E798463D46D4E7D82904009F
S31500002930CD250000C12500000BF09CBA0BF0D4BADF
S3150000294070B504460E4615469AB0002111F0B6FF42
S3150000295002A811F031FF214602A812F047F902A899
S315000029601E4912F045F902A84FF0FF3112F05AF94C
S31500002970314602A812F03EF905F5B472294602A8BE
S3150000298012F03EF902A811F031FF02A8144912F024
S315000029903DF94FF480600023009040F2512202A8D6
S315000029A04FF4D77112F04CF94FF4B47202A800211B
S315000029B012F026F90B4902A812F01AF902A811F032
S315000029C015FF4FF4B472204600210BF015FF4FF4AB
S315000029D0877120460BF01CFF1AB070BD3D29000020
S315000029E0A14B01003929000010B50C4602212046F2
S315000029F032F068F92046BDE81040C8224FF47A71DB
S31500002A00FFF79EBF2DE9F0430025D0F884208BB058
S31500002A10AA420446CDE90555CDE90755C36FADF881
S31500002A2024507ADB012505AE002B0DF104083F4A40
S31500002A30B8BF5B420E21404610F006F8404610F043
S31500002A40B3F994F88CC00CF00F09B9EB000213D05F
S31500002A50002809DB431C434408EB090113F9010D67
S31500002A60434501F80109F9D1002A05DD3021404628
S31500002A703EF06CFE94F88CC0BCF10F0F32D84F4676
S31500002A80B9F1000F0ED04146002304E001339F4206
S31500002A9006F8012B03DD11F9012B002AF6D1BCF152
S31500002AA00F0F23D805A92046FEF788FCD4F88830F6
S31500002AB094F88C10092B01F00F0109DD1C481A4609
S31500002AC0A0FB0363632A01F1FF314FEAD303F6DC6F
S31500002AD08F4238BF01312046491BFDF7A3FE0BB0DC
S31500002AE0BDE8F0835FEA1C17CDD13B462E21324666
S31500002AF04B4502F8011BD5DA09F10109A9EB0309D7
S31500002B00013B4E44984403E002F8013BB242C9D06F
S31500002B1018F9013F002BF7D1C4E7AB42B4BF2D2211
S31500002B202B220DF115068DF814207DE7641804009C
S31500002B30CDCCCCCC38B500200C4601250F4B104A25
S31500002B40C4E91F03B4F88C3029466FF30A0343F433
S31500002B50806343F005032046C4F88420A4F88C3033
S31500002B60C4F88850FDF794FF20462946FDF786FFF6
S31500002B702046BDE83840FFF745BF00BF9F860100ED
S31500002B806179FEFF60B1C26FD0F88830002AD0F8B4
S31500002B908010134405DB99420BDB934206D1704744
S31500002BA0FEE7002BF7DD5342994202DBC367FFF7CE
S31500002BB029BF90F88D30DB0705D58A4205D00B4634
S31500002BC0C367FFF71FBF0B46E7E7D0F88430E4E79B
S31500002BD078B1C26FD0F88830002AD0F88410A2EB02
S31500002BE0030301DD002B05DB994206DC93420BD182
S31500002BF07047FEE75342994206DD90F88D30DB07B9
S31500002C0005D58A4205D00B46C367FFF7FBBE0B46C8
S31500002C10ECE7D0F88030E9E7F8B58C480D4632F09D
S31500002C20EDFF012800D0F8BD0446284613F054F9FC
S31500002C300646284613F04CF90B2E074613D0112EE4
S31500002C40F1D117F07DFC17F081FC0446284613F0FD
S31500002C5047F90168A1F11103032B00F2F180DFE8C7
S31500002C6003F05F5A7B6417F06BFC17F06FFC0428C7
S31500002C7029D03846FDF74AFF044610F095F87A6DDC
S31500002C80A3562E2B73D0904200F08880D7F884008C
S31500002C90002A72D10028C0F2898097F88C1001F0C2
S31500002CA00F0101390123002231B1013203EB830305
S31500002CB08A424FEA4303F8D1C7F888303846BDE860
S31500002CC0F840FFF79FBE384632F088F831F030FA08
S31500002CD00028CED097F88C2002F00F02012AA2D944
S31500002CE097F88D30D7F8885003F00603042B65D18A
S31500002CF0012D40F38880564AEB1782FB0552C3EB41
S31500002D00A203012BB8BF0123C7F888303846BDE8B7
S31500002D10F840FFF777BE3846BDE8F840FFF758BFE2
S31500002D203846BDE8F840FFF72DBF042CF3D097B125
S31500002D30D7E92013002BB8BF5B428B42B8BF0B46C6
S31500002D40D7F8882002EB82025000B3EB420FA8BFEF
S31500002D50C7F88800B2E7FEE7042CE1D037B1D7F810
S31500002D6088203B49D31781FB0212C8E7FEE73846A5
S31500002D70FEF79CFB7A6DD7F8840097F88C30B2EB9F
S31500002D80131F03D90F2B88BF02F1FF3203F00F0187
S31500002D900139891A0028B8BF013183E73846511E28
S31500002DA0FDF740FD7A6DD7F88400E6E73846012145
S31500002DB0FDF738FD7A6DD7F88400DEE70A2000219A
S31500002DC0013A13F09FFDEB1785428B4114DAD7E9E0
S31500002DD02003002BB8BF5B428342B8BF0346D7F837
S31500002DE0882002EB8202B3EB420F4FEA4201FFF664
S31500002DF065AFC7F8881061E7C7F888403846BDE870
S31500002E00F840FFF7FFBD023A0A20002113F07AFDD1
S31500002E10D7E92042002AB8BF52420346A242B8BFB1
S31500002E20224603EB8301B2EB410F4FEA4101A8BFF3
S31500002E300B46C7F888303846BDE8F840FFF7E2BDD4
S31500002E403846BDE8F840FDF7D3BF00BF202A04008E
S31500002E506766666608B540F2047010F061FB034BC6
S31500002E60C3F8E80100B108BDFEE700BFBC000120C1
S31500002E702DE9F0430C46054683B05110002B4ED089
S31500002E8023685B1A1A44013A2360A260036A6360EE
S31500002E90836AE36012224FF44031284637F0E0F8A7
S31500002EA0804613224FF440312846CDF8048037F08F
S31500002EB0D7F8814610224FF440312846CDF80490C9
S31500002EC037F0CEF8064611224FF4403128460196D7
S31500002ED037F0C6F807466A224FF440312846019774
S31500002EE037F0BEF8034628461D466B224FF44031A4
S31500002EF0019337F0B5F82368A844A3EB08032360D1
S31500002F00A3684D442B446268A360E36806443844D2
S31500002F100344921B6260E36003B0BDE8F08363681C
S31500002F205B1A1A44013A6360E260C3692360436A2C
S31500002F30A360AFE738B50C46002594F8A8304FF4E7
S31500002F40807123F0030384F8A8302046C4F8A45007
S31500002F5031F0B8FE1021204631F0B4FE4FF4806106
S31500002F60204631F05FFE284630F0DCFD1D2805DCEA
S31500002F702046BDE83840012133F0ECBE284630F04B
S31500002F80D1FD064B0A3083FB0023C117C1EBE301D9
S31500002F902046BDE8384033F0DDBE00BF6766666692
S31500002FA02DE9F04F87B00F46044617F0C9FA0646DA
S31500002FB017F0CCFA012802D007B0BDE8F08F05461D
S31500002FC0304617F0F7FA80460028F5D1304602A9B8
S31500002FD017F0C8FA0322204602A933F035FB94F80D
S31500002FE0783013F0380300F0C780082B00F0AE806D
S31500002FF0002F40F09580D4F8A450002D00F0ED800D
S3150000300004F140052722D4E90E3600212046F61A9F
S3150000301037F026F894F87830049013F038095FFA00
S3150000302080F800F0C380B9F1080F94F854A07DD061
S315000030304FF00008002F48D110223946204637F0BD
S315000030400FF88346112239462046CDF810B037F0E6
S3150000305007F881462046CDF8109033F017FAD04590
S31500003060A0EB0902A2EB0B0200F01081236A039881
S315000030709B44A0EB0B0002EBD2735B1006FB003304
S3150000308093FBF2F3A16B0B44D4F8A420E06BAA42A5
S315000030900CBF606B216C8342A8BF03468B42B8BF4E
S315000030A00B461068984287D01360002F48D04FF423
S315000030B00071204631F006FE204633F0DFFB002289
S315000030C02321204632F0B4FD76E712220021204665
S315000030D036F0C6FF8146132200212046CDF8109017
S315000030E036F0BEFF83462046CDF810B033F0C8F95F
S315000030F0D045A0EB0902A2EB0B0200F0C180636A87
S315000031000299A3EB0B035B1AA16B002ABCD002EB5E
S31500003110D270401006FB030393FBF2F30B44B3E7B4
S3150000312094F8A830D9073BD5474664E7A8F10108CB
S31500003130B8FA88F84FEA5818002F3FF47DAFC4E775
S315000031404FF48071204631F0BDFDB5E7002F00F049
S31500003150A58094F8A830D8073FF54DAF0127029B0C
S31500003160D4F89C209B1A002B96F82420B8BF5B420B
S315000031709342BFF640AF1FE7204633F081F905467C
S31500003180204633F083F98542B4BF00230123002F84
S3150000319000F0828094F8A820D2077DD48542DDDA3B
S315000031A0039BD4F8A02000279B1ADCE7204633F0C7
S315000031B067F98346204633F069F9B8F1010F94F8B0
S315000031C054A07FF435AF8345B4BF4FF000084FF0ED
S315000031D00108002F3FF430AF77E720460AF002FCE3
S315000031E094F8A830022843F0010384F8A83057D198
S315000031F017F0A6F904A917F0B5F90322204604A989
S3150000320033F022FA29462722204636F029FF94F881
S315000032107830019013F03806C5B269D0082E94F8BC
S31500003220542049D0059D002A71D0D4F89810A9429F
S3150000323036DBD4F88020AA4239DCD4F89030D4F8B2
S315000032408800801AC91A00EBD07001EBD17102EB2D
S31500003250600203EB6103521B5B1B002AB8BF52429C
S31500003260002BB8BF5B429A4294F8A8305CDD04F1AB
S31500003270340223F00203C4F8A42084F8A830BFE681
S31500003280E3699944029BA3EB09033DE7A36A09EBB3
S315000032900300039BC01AEEE61F46ACE62F46AAE6DD
S315000032A004F13403C4F8A43004F14005AAE604F19D
S315000032B04005C4F8A450A5E66B1E58425841824208
S315000032C0049D3AD0D4F88C30AB42E9DCD4F88410B3
S315000032D0A942ECDBD4F89400E26F891AC01A01EB1C
S315000032E0D17100EBD07002EB610203EB6003B2E731
S315000032F0204633F0C5F88046204633F0C7F8012D46
S3150000330094F8542025D080458CDB3046D7E7D4F896
S315000033109030AB42C4DCD4F88800A842C7DBD4F8AE
S315000033209810D4F880208CE704F1400543F002039E
S31500003330C4F8A45084F8A83064E6D4F89400A842EF
S31500003340AEDBE26FAA42B2DCD4F88C30D4F884103B
S31500003350C3E78045FFF666AF2846B0E72DE9F04F94
S31500003360C248D1B00E4632F049FC012802D051B015
S31500003370BDE8F08F304612F0AFFD0546304612F03C
S31500003380A7FD07460AF02EFB0128044605D0A4F146
S315000033900204B4FA84F4640964006B1E302BE6D888
S315000033A001A252F823F000BF3F3600005D36000050
S315000033B06D3400006F3300006F3300006F33000080
S315000033C06F3300006F3300006F3300006F3300006F
S315000033D06D3400006F3300006F3300006F33000060
S315000033E06F3300006F330000D13400003135000028
S315000033F0B73700006F3300006F33000071360000EE
S315000034006F3300006F3300006F3300006F3300002E
S31500003410E93600006F330000573500006F330000B7
S315000034206F3300006F3300006F3300006F3300000E
S315000034306F3300006F3300006F3300006F330000FE
S315000034406F3300006F3300006F3300006F330000EE
S315000034506F3300006F3300006F3300006F330000DE
S315000034606F3300006F3300000D3600000025002189
S315000034703846FFF795FD97F8A830384623F0010344
S3150000348087F8A830C7F8A45033F0F8F9384631F079
S31500003490A5FC064630F04CFE044617F051F817F02E
S315000034A055F8042800F0EF8101287FF460AF97F803
S315000034B0783013F0380300F03C82082B00F043828A
S315000034C04FF48071384651B0BDE8F04F31F0AABBD9
S315000034D0304632F077FC113803283FF648AFDFE874
S315000034E000F01802180297F8A83038469A0700F13B
S315000034F017820AF05FFA01460122384601390AF0BE
S3150000350075F900222321384651B0BDE8F04F32F05C
S315000035108FBB97F8A8303846990700F162810AF008
S3150000352049FA01220146384611440AF05FF9E8E7F4
S31500003530304632F053FC97F8A83004469B073846CD
S3150000354000F14F810AF036FA01460122384621443D
S315000035500AF04CF9D5E7304612F0BAFC044630467C
S3150000356032F028FC272207460021204636F078FD57
S315000035702B9094F87830C5B213F0380600F0A98184
S31500003580082E94F8548000F08D8120460AF032FA15
S315000035900546204632F074FF81461DB1636B002B51
S315000035A0C0F21981B8F1000F00F01981236D4FF0B8
S315000035B0000A564602AD6B6006A82FF0B7FB4FF423
S315000035C04031204606AA0A9731F0DEFD53464A46A8
S315000035D029462046FFF74CFC6B682046C4F890301D
S315000035E0AB6804F18C0BC4F89430EB68C4F89830DF
S315000035F02B68C4F88C300AF0F5F9022800F0148123
S315000036005A46384606A92FF019FCB0E697F87830E6
S3150000361013F0380300F0F380082B00F0FA804FF423
S315000036208071384631F0FEFA4FF40071384631F0B9
S3150000363049FB384651B0BDE8F04F32F0AFBA07F15A
S315000036409C0416F07DFF214616F08CFF03222146CE
S31500003650384651B0BDE8F04F32F0F6BF012138468A
S3150000366051B0BDE8F04FFFF79BBC00BF442A0400F1
S31500003670304612F035FCBD68804605B1AD6AD7F814
S315000036809830D7F88C10D7E92402CDE92B10CDE974
S315000036902D2329462A462BA811F028FB0022D8F80C
S315000036A000102BA811F020FC064688F8040000281C
S315000036B07FF45DAE022C7FF45AAED7E92002D7F82C
S315000036C08830F96FCDE92D23CDE92B102A462946FE
S315000036D02BA811F00BFB3246D8F800102BA811F0DE
S315000036E003FC88F8040042E612224FF440313846C3
S315000036F036F0B6FC054613224FF4403138462B957A
S3150000370036F0AEFC824610224FF440313846CDF8F2
S31500003710ACA036F0A5FC814611224FF44031384664
S31500003720CDF8AC9036F09CFC80466A224FF44031CE
S315000037303846CDF8AC8036F093FC83466B224FF4C6
S3150000374040313846CDF8ACB036F08AFC04463846EF
S315000037502B9432F095FE00EB4B033846019332F082
S3150000376095FE019B00EB440083424FEA4B0B384623
S315000037704FEA44043EDA32F083FE83444FEA6B0498
S315000037805545B8BF55464D45B8BF4D464FF4403137
S31500003790384632F097F94545ACBF641944440346B0
S315000037A0023430461C4412F09BFB03689C42B8BFAF
S315000037B01C460460DBE516F0C3FE16F0C7FE0428BF
S315000037C002D002287FF4D3AD97F8A83023F0020385
S315000037D087F8A830CBE5B8F1000F3FF4E7AEA36C4D
S315000037E0E5E60AF0EFF801220146384611440AF0F0
S315000037F063F886E632F04AFE04446410C0E73846B1
S3150000380032F03EFE0446384632F040FE8442FFF671
S3150000381006AF38464FF4007131F004FA4FF4807168
S31500003820384631F04FFA04E7942206A92BA80FF088
S3150000383033FA5A46384606A92FF000FBBAF1000FB4
S3150000384068D0B0450CBF636CE36C2B6053464A46A8
S3150000385029462046FFF70CFB6B682BA9C4F880307D
S31500003860AB689422C4F88430EB6806A8C4F88830A4
S315000038702B68E3670FF010FA384606A904F17C02BC
S315000038802FF0DCFA73E5002C3FF471AD38460AF0F0
S31500003890A9F802285AD02946304651B0BDE8F04F63
S315000038A030F022BC012D2FD020460AF0A3F80026C6
S315000038B00546204632F0EAFD814615B1636B002BC2
S315000038C01BDBB0451BD0636C02AD4FF0010A2B60C9
S315000038D072E6204632F0D4FD8246204632F0D6FD0E
S315000038E0012D814694F854800BD020460AF082F8C8
S315000038F0CA450546FFF64DAEDBE7B045E3D0E36CBF
S31500003900E2E78245FFF641AE20460AF073F801264B
S315000039100546CEE7B0450CBF236DA36C6B6095E7FB
S315000039200AF050F8014601223846013909F0C4FF71
S31500003930E7E5384632F0A4FD0446384632F0A6FDE7
S315000039408442FFF6BDAD4FF40071BBE597F8A83091
S31500003950980704D443F0020387F8A83007E565F317
S3150000396041032946304687F8A83096E7014610B548
S31500003970034831F097FA044631F0FAFA204610BDB2
S31500003980442A040009F032BF09F0D4BF2DE9F04FF4
S31500003990B0F850C0C26C85B0CCF30E0B836C0292AB
S315000039A0BBF1000F42D082460026DFF89C800BF167
S315000039B0FF3900F134050393DAF8503018EA0307AB
S315000039C008D0C3F3CE33B6FBF3F703FB1767B7FA9A
S315000039D087F77F09029C00214A46039B00943046E4
S315000039E012F0AEFF0446284612F01CFD0146D0B187
S315000039F0CB68A34211DC0B69A3420EDBD1E9053289
S31500003A00FF2B16D0FF2A01D0B34206D091F83430EE
S31500003A108E6167F3410381F83430284612F00AFDBF
S31500003A2001460028E4D10136B345C5D105B0BDE84D
S31500003A30F08F91F83430FF2A67F300034E6181F866
S31500003A403430EAD1E2E700BF0080FF3FF0B5074619
S31500003A500C461E4683B0002A3CD0154648216A46CD
S31500003A60284613F037FB01281AD1009820636A46CE
S31500003A704C21284613F02EFB01281FD1009BA3855D
S31500003A801B0C84F82E306A4628464D2113F022FB83
S31500003A9001280CD19DF8000084F83C0003B0F0BD6D
S31500003AA048223146384636F0DBFA0190DEE74D22F1
S31500003AB03146384636F0D4FAC0B2EDE74C223146EC
S31500003AC0384636F0CDFA0190A085C0F3074084F859
S31500003AD02E00D8E719464C2236F0C2FA0346C3F345
S31500003AE007453146A3854D22384684F82E5001936A
S31500003AF036F0B6FA034648223146384684F83C305A
S31500003B00019336F0ADFA206303B0F0BD2DE9F04F16
S31500003B100E4683B0002117461222044636F0A0FA5C
S31500003B200546132200212046019536F099FA814672
S31500003B30102200212046CDF8049036F091FA8046F6
S31500003B40112200212046CDF8048036F089FA8246FB
S31500003B502046CDF804A032F093FCA0EB050B2046DE
S31500003B6032F094FCA0EB0803ABEB090BA3EB0A03C2
S31500003B709B45204613DA32F083FC431BA3EB090373
S31500003B8003EBD3735B10E2691A442A443260226A5B
S31500003B901A44424472603B6003B0BDE8F08F32F0D5
S31500003BA075FCA0EB0803A3EB0A0303EBD3735B10CE
S31500003BB0E9E700BF2DE9F04F04461646A1B010A86C
S31500003BC089461F462FF024F810AA0021204631F01E
S31500003BD075FE0322002E00F009814FF400312046C5
S31500003BE036F03EFA80460D224FF400312046CDF8DD
S31500003BF0308036F035FA002582460C9094F8443031
S31500003C00102B67D8DFE803F069696966696666663E
S31500003C10096666666666666609000CA9204632F085
S31500003C2043FC0CA811F080FC83460CA811F082FC22
S31500003C3000EBD07043100BEBDB7BB3EB6B0F0CA8E8
S31500003C4000F3E58011F076FC00EBD0704210A36D16
S31500003C50B4F8501003FB09F3C1F30E0103EB830321
S31500003C6001395B00B3FBF1F3D4F85CE094F844C08F
S31500003C700EEB8E0E03EB4E040C991C9B0D98114413
S31500003C801044D21A0A9111445144002E18BF4546D9
S31500003C90786039604FF480730B9038460027BCF18A
S31500003CA0080F0AAE0CBF551BAD1821461A460096E2
S31500003CB0019711F027FC4FF480730A9A2A9815444D
S31500003CC00B9A5544019700962146C0E900521A46C0
S31500003CD011F018FC21B0BDE8F08F302200212046FB
S31500003CE036F0BEF98246102200212046CDF830A0DB
S31500003CF036F0B6F90346112200210C9320465344B0
S31500003D00029336F0ADF90346132200210C932046A8
S31500003D105344039336F0A4F90346122200210C9370
S31500003D2020465344059336F09BF9834613224FF4FD
S31500003D30A0212046CDF830B036F092F90346122283
S31500003D404FF4A021089020460C9336F089F90346DB
S31500003D5010224FF4A021069020460C9336F080F9ED
S31500003D60034611224FF4A021049020460C9336F00E
S31500003D7077F994F84410024602290C905AD00BEBBE
S31500003D800A0307931C9B042903EBD373D4F81CC0C6
S31500003D904FEA630A41D001297AD0A36A9A44039B69
S31500003DA0AAEB030ADDE90603034403EB0C0B002927
S31500003DB078D1B4F85030C3F30E03013B002E65D022
S31500003DC0C8F1000504294BD0994574D0B9F1000F0C
S31500003DD040F08D80C7E900BA2A9B2A9AC3F800B042
S31500003DE07B682B44536021B0BDE8F08F4FF4A021CF
S31500003DF0204636F035F905460D224FF4A02120461F
S31500003E000C9536F02DF9B04682460C90F6E611F088
S31500003E108BFB00EBD070421019E7079BE2440AEBDC
S31500003E20030B236A02980993049B00EB030A099B80
S31500003E309A44BEE71C9B616A03EBD37301EB6301F3
S31500003E40059B0498A1EB030B0299236A01EB000A78
S31500003E509A4406B14546B4F85030C3F30E03013B0D
S31500003E60994508D00398A16A00EB020AA1EB0A0A59
S31500003E70B9F1000F26D10BF1FF33C7E9003A5D1BFC
S31500003E802A9BC3E9005A21B0BDE8F08F6D4299E73D
S31500003E90236A029A53441A449246059B089A13448D
S31500003EA003EB0C0BB4F85030002E18BF4546C3F395
S31500003EB00E03013B88E7DDE906231344626AA2EBA1
S31500003EC0030B87E72046CDE9053232F0DFFADDE95C
S31500003ED002131944049B069A19440A44821A09FBE0
S31500003EE002F2059B92FBF3F3AAEB030AC3E7204613
S31500003EF0029332F0C5FA079B059A1A44089B1A44A6
S31500003F00069B1A44801A09FB00F0029B90FBF3F310
S31500003F109B445FE72DE9F04FB0F85030A9B0C3F3EA
S31500003F200E04012C029440F2E58090F844300546D8
S31500003F30102B00F0DF80082B00F0DC804FF0000A29
S31500003F4008A82EF065FE4FF4003108AA284631F085
S31500003F50B5FC18A82EF05CFE4FF4A021284618AA3E
S31500003F6031F0ACFC631E039305F134070DF1100923
S31500003F702B6DA44A12EA030B00F00681C3F3CE337D
S31500003F80BAFBF3FB03FB1BABEB6C00210093039A1C
S31500003F90AB6C504612F0D4FCBBFA8BFB0646384697
S31500003FA012F040FA4FEA5B1BD8460446C8B1E368F4
S31500003FB0B34203DC2369B34280F2B9804FF4003187
S31500003FC0284608AA31F07AFC4FF4A021284618AA00
S31500003FD031F074FC2146384612F02CFA04460028CB
S31500003FE0E5D106AB00935A464B4651462846FFF7A5
S31500003FF0E1FDB5F85030C3F30E03B8F1000F40F001
S31500004000AC804FF00008249A9A4500F0AA80BAF1D5
S31500004010000F7FD195F84430082B08D0102B06D01E
S31500004020022B00F0E480042B00F0E1806A6638463B
S3150000403012F0F8F90446002800F0E1805FFA8AFBE6
S3150000404009E0A3695B4532D02146384612F0F2F901
S315000040500446002848D0E368B3420CDC2369B34227
S3150000406009DBB8F1000F48D04FF4003328466268E8
S3150000407008A9FFF7EBFC63695B45E2D194F834309D
S31500004080D8074CBF149A249A04F1240399E8030034
S3150000409083E80300D10706D595F84430022B34D0C7
S315000040A0042B32D0013AA369E2615B45CCD199E891
S315000040B0030094F834309A074CBF149A249A04F1FA
S315000040C02C0383E80300D30706D595F84430022B6A
S315000040D01DD0042B1BD0013221462262384612F035
S315000040E0A9F904460028B6D1029B0AF1010A5345F4
S315000040F07FF43EAF29B0BDE8F08F4FF4A0232846E9
S31500004100A26818A9FFF7A2FCB5E70132CBE7013A8E
S31500004110E2E76A66384612F085F9044600288DD132
S31500004120029B0AF1010A53457FF422AFE2E7B8F198
S31500004130000F47D04FF400332846626808A9FFF7FE
S3150000414085FC06AB00935A464B4651462846FFF778
S3150000415031FDB5F85030C3F30E039A45149A7FF437
S3150000416056AF95F84430082BD4D0102BD2D0022B62
S31500004170CFD0042BCDD03846AA6612F053F90446A8
S3150000418000287FF45BAFCBE7EB6C59460093039AAC
S31500004190AB6C504612F0D4FB0646384612F042F994
S315000041A0D846044600287FF402AF06AB00932246A9
S315000041B04B4651462846FFF7FDFCB5F85030C3F391
S315000041C00E031EE74FF4A0232846A26818A9FFF79E
S315000041D03DFC06AB5A46009351464B462846FFF730
S315000041E0E9FCB5F85030249AC3F30E030CE73846C1
S315000041F0AA6612F017F9044600287FF41FAF4FF0A5
S31500004200010AB5E60080FF3FF0B500246FF0604577
S31500004210064689B0CDE901541C468B6A15460093C3
S31500004220CB6A06A8D1E9071213F08AFD96F8443046
S31500004230102B1CD8DFE803F044441D1B1D1B1B1B61
S31500004240091B1B1B1B1B1B1B0900069A296802EB7B
S31500004250D273A1EB63012160079B0A446968A260DF
S3150000426003EBD372A1EB620213446260E36009B010
S31500004270F0BD079B6A6803EBD3735B105B421A447D
S3150000428062606A68D21AE26096F84430022B41D026
S3150000429013224FF4003130462F6835F0E1FE034615
S315000042A01F44276013224FF4003130462D68069EC6
S315000042B0059335F0D5FE35440544A56009B0F0BD3B
S315000042C0069B2A6803EBD3735B105B421A44226099
S315000042D02A68D21AA26096F84430012B0DD010221B
S315000042E04FF4003130466D6835F0BAFE079B281A48
S315000042F0C31AE060636009B0F0BD11224FF40031CB
S3150000430030466D6835F0ACFE079B28440344606078
S31500004310E360ACE72B68069A4FF400319F1A3046EB
S31500004320122235F09DFE0346FF1A276012224FF433
S31500004330003130462D68059335F092FE2D1AA560A2
S3150000434095E700BF2DE9F04F8346ADF5077D08469A
S31500004350069131F02FFDBBF85030C3F30E03012B4D
S3150000436040F2BA80824652A82DF08CFF4FF40031FD
S3150000437052AA5846CDF858A131F07EF922A82EF05F
S3150000438047FC4FF40031584622AACDF898A031F0E8
S3150000439095FA9BF84430102B00F0A280082B00F011
S315000043A09F8032A82EF034FC4FF4A02132AA584642
S315000043B0CDF8D8A031F082FA42A82EF029FC42AA04
S315000043C000215846CDF818A131F078FABBF85020F4
S315000043D0C2F30E030393002B7ED04FF0000E55461A
S315000043E07746013B04930BF134080DF13809CDF8FB
S315000043F014E0DBF850308B4A12EA03060CD0C3F304
S31500004400CE33B7FBF3F203FB1273002B40F0FC81B3
S315000044100126059B01330593DBF84C300021009300
S31500004420049ADBF84830384612F08AFA04464046C9
S3150000443054975695559411F0F5FF824600B3DAF875
S315000044400C30A34203DCDAF81030A3424FDA4FF403
S315000044500031584652AA31F00FF94FF40031584650
S3150000446022AA31F02BFA4FF4A021584632AA31F095
S3150000447025FA5146404611F0DDFF82460028DED17E
S3150000448013AB0093324611AB39465846FFF792FB01
S315000044909BF853305B0600F1B981002E40F00D8188
S315000044A0484611A911F054F899E8030039AB83E89E
S315000044B00300484613A911F04BF8CDE934743BAB21
S315000044C099E8030083E80300284632A92EF0BAFBD8
S315000044D0039B0137BB428CD10DF5077DBDE8F08FFC
S315000044E09DF8C53023F004038DF8C53059E7002E3A
S315000044F000F09081DAF80460002E00F0C5815821A2
S3150000450030461DAA12F0E6FD012840F0AF811D9B42
S31500004510ADF86C311B0C8DF86E31592130461DAA51
S3150000452012F0D8FD012840F098819DF874305B2187
S3150000453030461DAA8DF8983112F0CCFD012840F0C6
S3150000454083811D9B30465A211DAA5D9312F0C2FD40
S31500004550012840F070811D9B5A934FF40033584652
S31500004560DAF8042022A9FFF771FA13AB00930122AF
S3150000457011AB39465846FFF71DFB9BF853305E06D4
S3150000458040F19B80069831F015FC0023DBF84020B3
S31500004590CDE91D33CDE91F3307902193002A00F0A2
S315000045A09D81DBF86010BDF814308B420EDC03F100
S315000045B08043013B52F8233043B1002259939DF8C2
S315000045C09C3162F300038DF89C3101E0002359937E
S315000045D06C224FF40031584635F042FD03466D22F9
S315000045E04FF40031089058466B9335F039FD034679
S315000045F0099070224FF4003158466B9335F030FD28
S315000046009BF844300A906B90102B56D8DFE803F0E5
S315000046100C0C0C550C5555556E555555555555554F
S315000046206E0000BF0080FF3F089A139B0DF1640ADD
S3150000463013446B93099A149B584613446C936BABC3
S315000046401A460B9352A95346FFF7DEFD0A9B5246C4
S31500004650C3F31206002E40F3D280102107982CF0E7
S31500004660EDFB524652A90A902DF056FE504610F028
S315000046705BFF0990504610F05DFF08900B982DF0F7
S3150000468023FB0999089A01EBD17102EBD27249100A
S3150000469052100A9B7C917D920B9952460798729311
S315000046A077962DF051FC9DF89C31DA0705D500224E
S315000046B062F3000359928DF89C31484611A910F017
S315000046C047FF99E8030029AB83E80300484613A98E
S315000046D010F03EFFCDE924742BAB99E8030083E884
S315000046E00300284622A92EF0ADFAF1E677224FF410
S315000046F00031584635F0B4FC82460E224FF40031A4
S315000047005846CDF8ACA135F0ABFC6BAA034616466D
S31500004710114658466B930F330B920D9331F0C4FE3E
S31500004720304610F001FF0C90304610F003FF0C9A53
S3150000473000EBD07002EBD2724310B3EB620F00F3C2
S31500004740EB800B9810F0F6FE00EBD07043101E467F
S315000047506B9B584699196C9B9A19CDE91512032241
S315000047604FF4003135F07CFCDBF85820BBF85010D4
S3150000477007FB02F2C1F30E0102EB8202520001397D
S31500004780B2FBF1F1DBF85C200AEB8A0C02EB820249
S3150000479001EB4C0101EB42019BF844200DF1640A48
S315000047A0082A15ABCAF8000000F0BE80102A00F0F7
S315000047B0C1800020089E1A6832440244099E586847
S315000047C03044CDE917200A9AD002C2F3120603D567
S315000047D012030E4400F193800093002301934FF4DB
S315000047E0807317A81A4610F08DFE17AA534658462E
S315000047F052A9FFF709FD002E52463FF72EAF079844
S3150000480052A92DF089FD4EE7002605E6002E3FF45D
S3150000481047AEB7E65846DAF8082032A94FF4A02387
S31500004820FFF714F913AB009332463946584611ABDD
S31500004830FFF7C0F934E65A224FF40031584635F0F6
S315000048400FFC03466B9087E65B224FF40031584617
S3150000485035F006FC03466B9074E659224FF400319E
S31500004860584635F0FDFB6B90C3B260E658224FF414
S315000048700031584635F0F4FB6B90ADF86C01C0F38F
S3150000488007408DF86E0148E658224FF4003158462D
S3150000489035F0E6FB034659224FF400316B93ADF831
S315000048A06C315846C3F307438DF86E3135F0D8FBAB
S315000048B003465B224FF4003158466B938DF89831CE
S315000048C035F0CEFB03465A224FF4003158466B931F
S315000048D05D9335F0C5FB6B905A903EE62346142156
S315000048E0184A1DA80EF0B0F81DAB59939DF89C31DF
S315000048F043F001038DF89C316AE6A6F56166B6F5CC
S31500004900616FFADC6FF4617040F2DA52301890424F
S3150000491098BF06F5E1665FE7304610F005FE00EB4E
S31500004920D07043101E4613E7301A5D9A0D9E16444A
S31500004930801B3FE732460D9E02445D980644304692
S31500004940104437E7641804002DE9F04F0446AFB071
S31500004950084631F02FFAB4F85030C3F30E03012B9A
S315000049600FD994F844308346102B0AD8DFE803F0B9
S315000049700C0C0C090C090909C609090909090909D8
S31500004980C6002FB0BDE8F08F0EA82EF041F9002129
S3150000499020460EAACDF848B030F090FF3022002114
S315000049A0204635F05DFB07461022002120461E9763
S315000049B035F056FB05461122002120461E9535F09E
S315000049C04FFB06461222002120461E9635F048FB74
S315000049D08046132200212046CDF8788035F040FB32
S315000049E094F844303D44022B3E441E9000EB0702EF
S315000049F000F09F81042BB84400F0B681012B40F0F3
S31500004A00BD811A99236A01EBD17103EB6103E16958
S31500004A102B440A44616E0B9301EBD171A2EB610248
S31500004A200D930A92636AA26EA3EB080302EBD2729D
S31500004A3003EB62030C9304AD28460AA910F088FD27
S31500004A4095E8030015AB83E8030028460CA910F08F
S31500004A507FFD95E8030017AB83E8030058460EA9CF
S31500004A602EF0F0F804F134031846039311F0DAFC43
S31500004A700546002885D0A2461EAF1EE0042A34D083
S31500004A800B9C6A6AA146A2EB0308EB6A1E442A68DD
S31500004A90002339465046FEF7D9FF39465846CDE938
S31500004AA02584CDE927692EF0CDF82946039811F023
S31500004AB0C1FC054600283FF464AF38462EF0A8F83E
S31500004AC03A4600215046CDF888B030F0F7FEEB6943
S31500004AD02E6A9AF8442003EBD37306EBD676022AA5
S31500004AE04FEA63034FEA6606C8D1AC6ADDF8288050
S31500004AF01C442B6BA3EB06094646C8E70EA82CF010
S31500004B00F3F90AAD002120460EAACDF848B030F0E0
S31500004B105DFF2946204606AAFEF7F8FFD4E91623CC
S31500004B20A16C1A4400920846E26C11F009FFD4E920
S31500004B3016231A440092D4E912120646104611F0C2
S31500004B40FFFE069BCDE9176095E80300ADF86C30D3
S31500004B5019AB83E8030058460EA92CF0DDF904F1E1
S31500004B6034031846039311F05DFC824600283FF497
S31500004B7008AF1EAFB8460DF1300949E008982690F7
S31500004B805221284608AA12F0A5FA012840F08F8083
S31500004B90089BADF894301B0C8DF8963053212846AF
S31500004BA008AA12F097FA012879D19DF820008DF80D
S31500004BB0B4005121284608AA12F08CFA012864D1C3
S31500004BC0089B03F001039DF8B510284663F3000126
S31500004BD08DF8B51008AA542112F07CFA01284DD19F
S31500004BE00898079B2C90ADF8AC3029AB99E80300E8
S31500004BF0CDE9277683E80300414658462CF08CF928
S31500004C005146039811F016FC824600283FF4B9AECF
S31500004C1040462CF069F9002142462046CDF888B07E
S31500004C2030F0D4FE4946204607AAFEF76FFFD4E9C6
S31500004C3016231A44DAF80C000092D4E9121211F085
S31500004C407FFED4E916231A440746DAF810000092CC
S31500004C50D4E9121211F074FEDAF8005006469DB33C
S31500004C605021284608AA12F035FA012886D050228B
S31500004C700021204635F0F4F9099080E754220021FE
S31500004C80204635F0EDF90990ABE751220021204688
S31500004C9035F0E6F9031E18BF0123099093E7532266
S31500004CA00021204635F0DCF90990C0B27FE7522298
S31500004CB00021204635F0D4F90990ADF89400C0F3F0
S31500004CC007408DF8960069E729465222204635F0BE
S31500004CD0C7F90346294653220993ADF89430204676
S31500004CE0C3F307438DF8963035F0BAF903462946E3
S31500004CF05022204609938DF8B43035F0B1F90346B9
S31500004D002946512220460993269335F0A9F90346F0
S31500004D100993003B18BF012329469DF8B55054223C
S31500004D2063F3000520468DF8B55035F099F90990E2
S31500004D3057E71A99636A01EBD17103EB61039B1A7A
S31500004D40226A1544626E013B02EBD272A5EB620544
S31500004D500A93A26E0C93A36A02EBD2729B1B03EB1F
S31500004D6062030B950D9366E61A9AE36902EBD2721B
S31500004D7003EB6203226A43441544E3E74BB91A9AEC
S31500004D80A36A02EBD27203EB6203E2699B1B424405
S31500004D9040E600231A463DE670B58B6B0E4601F1E0
S31500004DA034056BB1284611F039FB044628462146E6
S31500004DB011F00CFB20460EF0CFFBB36B002BF1D1AC
S31500004DC02846BDE8704011F09BBB00BF38B50C46C5
S31500004DD0382104F1340011F09FFA002364220E4DAD
S31500004DE001214FF4877025658725C4E9123294F8AE
S31500004DF05420C4E9193363F30002A06584F8441013
S31500004E00236684F854202364E5652046BDE83840CF
S31500004E1010212FF057BF00BF0B80024070B51F480E
S31500004E200C4630F0EBFE012800D070BD204611F094
S31500004E3053F80546204611F04BF81D2D064620D0A6
S31500004E40202D16D190F95330002BEEDAFEF79EFD99
S31500004E503046FFF75FF896F854302146DB073046B8
S31500004E6014D5FFF771FD21463046BDE87040FFF7C7
S31500004E7069BA1B2DD9D12046BDE87040642130F0B7
S31500004E80B9BF90F95330002BE0DA70BDFFF75AFA3C
S31500004E9021463046BDE87040FFF756BD682A04003B
S31500004EA031F080B92DE9F04305460F4685B000285C
S31500004EB04CD04FF480764FF00008B14670220021A6
S31500004EC0284635F0CDF803466E2200212846984440
S31500004ED0029335F0C5F804466F2200212846029455
S31500004EE035F0BEF80346012CB8BF0124012B1A4643
S31500004EF0B8BF0122029306FB02F328461E1236F0C3
S31500004F00ABF909FB04F405460FFA88F84FEA2429A1
S31500004F100028D3D14FF48032B9F1000F01D092FBB3
S31500004F20F9F24FF48033C8F100010EB193FBF6F3AA
S31500004F300024384600260027019402AC0094CDE9EF
S31500004F40026710F0DFFA05B0BDE8F0834FF4807316
S31500004F5001461A46ECE700BFF0B5002187B00546CA
S31500004F6036F07EF9044608B35A224FF480212846CB
S31500004F7035F076F803465B224FF4802128460493E9
S31500004F801D4635F06DF80346204600261C46049360
S31500004F906FF0604702F068FB234601462A4604A8E4
S31500004FA0CDE90176009612F0CBFE049807B0F0BD6D
S31500004FB02DE9F0415A2284B00F460021064635F00D
S31500004FC04FF805465A224FF480213046009535F0B9
S31500004FD047F804462846009415F06AFC0546204624
S31500004FE015F066FC5C2200218046304635F038F824
S31500004FF0044605EB080303EBD3733046356A009489
S3150000500004EB630431F042FA034603EBD37304EB7B
S31500005010D47205EB6303A3EB62031C447B6030464A
S315000050206946FC6031F082F9009A029B3A60BB60E7
S3150000503004B0BDE8F08100BF2DE9F04FBFB00546D2
S3150000504010F04AFF0446284610F042FF1D2C064683
S3150000505004D0202C1CD03FB0BDE8F08F284630F09D
S31500005060A9FE044615A93046FFF7A2FF19A82DF0A0
S315000050705DFE304619AA4FF480211D9430F084F865
S31500005080204615AA19A92DF0D9FE3FB0BDE8F08F2C
S31500005090284630F08FFE054619A82DF0F3F819AA18
S315000050A04FF4802130461D9505F1180430F0E4FADE
S315000050B00DAF304609A9FFF77BFF2146384609AAFE
S315000050C00FF034FE0028C6D00021304636F0C8F86E
S315000050D0824602F0B5FC28B19DF8B73043F0400394
S315000050E08DF8B730504602F0BFFADDE9233B804623
S315000050F03046DDF88490059331F0C2F9059B4A46A7
S31500005100CDE9003001205B464146029007A812F027
S3150000511017FE304631F0BAF95A2280460021304651
S3150000512034F09EFF8346CDF854B0DBF80C20DAF855
S31500005130203002EBD27203EB6203326A08EBD871BD
S3150000514002EB61025046A3EB02094FEA610831F017
S315000051509DF9DBF80C30089AC01A0028C4BF4FEA44
S31500005160893999FBF0F9219B316ADB688844D21AA8
S3150000517009FB02F203EBD373002108EBA238304699
S315000051803022A8EB630834F06BFF8346122200211D
S315000051903046CDF854B034F063FF81461322002127
S315000051A03046CDF8549034F05BFF034608991590CD
S315000051B041449DF8B720706A1491F16942F00802E3
S315000051C08944C01A8DF8B720CDF8488009EB0B0347
S315000051D00DF15408A0EB0B001193139094E80F0007
S315000051E088E80F0097E80F0084E80F00504602F0A9
S315000051F03BFA034619A9284611AA20932DF08CF8EC
S3150000520098E80F0084E80F0025E700BFF0B5046CAE
S31500005210436B83B0B3FBF4FC836B6408B3FBFCF60F
S315000052200CFB04F40CFB16332344B3FBFCF683633C
S315000052300CFB16332344C3635A220021054634F07F
S315000052400FFF04465C2200212846019434F008FF33
S3150000525006462046019615F02BFB0446284631F0FB
S315000052601FF907460021284635F0FAFF264404EBCD
S31500005270D474A96B07EBD7776410C4EB670401FB02
S31500005280164103B0BDE8F04030F08CBF2DE9F04781
S315000052908A4698B00021064635F0E2FF00285ED027
S315000052A0054602F0E1F900210246284635F06EFA7D
S315000052B0022857D0032875D00021284630F058FF21
S315000052C05A220021304634F0CBFE07465C220021EC
S315000052D03046009734F0C4FE04463846009415F074
S315000052E0E7FA8146304631F0DBF8672207460021AF
S315000052F0304634F0B5FE07EBD77780460090BAF11A
S31500005300000F58D009EB040A09EBD9746410C4EBFA
S31500005310670498B3B36B684603FB1A440FF04CFA64
S31500005320294668460FF062FC2F4968460FF060FC7C
S31500005330284631F035F82246014668460FF060FCF3
S31500005340414668460FF056FC684628490FF062FC55
S31500005350684627490FF05AFC68460FF047FA18B01E
S31500005360BDE8F087304631F097F80446284631F01C
S3150000537087F8211A01EBD17149109EE796F844305F
S3150000538003F00303012B26D0B36B03FB1A44284614
S3150000539015490FF093FA2146284618B0BDE8F047A4
S315000053A030F000BF304631F077F80446284631F039
S315000053B067F8211A81E796F844307F1003F003035B
S315000053C04C44012B09EBD979A7EB690707D0B36BDE
S315000053D003FB1474DBE73046FFF718FFD4E73046CB
S315000053E0FFF714FFF3E700BFA14E00007955000058
S315000053F03D4A01002DE9F0470846AEB00C4610F0D4
S315000054006BFD1D2825D0054621465A4830F0F6FB8F
S31500005410012802D02EB0BDE8F087204610F058FDD6
S315000054201B2D064675D1204610F05AFD054630461E
S3150000543035F012FFFFF790FD0446304631F020F8B4
S315000054402B68241A9C42B8BF1C462C602EB0BDE8BF
S31500005450F087204610F03CFD204610F039FD054649
S3150000546035F0FAFE034620461C4630F0A3FC0646FD
S3150000547015A82CF007FF2046002115AA199630F032
S31500005480FBF8284602F0DCFA28B19DF8A73043F075
S3150000549040038DF8A73006F118070DF104080DF149
S315000054A0140997E80F0088E80F003946484604F1CA
S315000054B01C020FF03BFC0028ACD099E80F0087E8EF
S315000054C00F00204609A9FFF773FD2B6A0DAC0E935A
S315000054D06B6A22460F93EB6939460D930A9B204669
S315000054E0109305F11C0A0FF021FCE8B9EB6922467E
S315000054F00D930C9B39460E936B6A20460F93AB6A4D
